{
  "address": "0x0165878A594ca255338adfa4d48449f69242Eb8F",
  "abi": [
    {
      "inputs": [
        {
          "internalType": "string",
          "name": "lowSvg",
          "type": "string"
        },
        {
          "internalType": "string",
          "name": "highSvg",
          "type": "string"
        },
        {
          "internalType": "address",
          "name": "priceFeedAddress",
          "type": "address"
        }
      ],
      "stateMutability": "nonpayable",
      "type": "constructor"
    },
    {
      "inputs": [
        {
          "internalType": "address",
          "name": "sender",
          "type": "address"
        },
        {
          "internalType": "uint256",
          "name": "tokenId",
          "type": "uint256"
        },
        {
          "internalType": "address",
          "name": "owner",
          "type": "address"
        }
      ],
      "name": "ERC721IncorrectOwner",
      "type": "error"
    },
    {
      "inputs": [
        {
          "internalType": "address",
          "name": "operator",
          "type": "address"
        },
        {
          "internalType": "uint256",
          "name": "tokenId",
          "type": "uint256"
        }
      ],
      "name": "ERC721InsufficientApproval",
      "type": "error"
    },
    {
      "inputs": [
        {
          "internalType": "address",
          "name": "approver",
          "type": "address"
        }
      ],
      "name": "ERC721InvalidApprover",
      "type": "error"
    },
    {
      "inputs": [
        {
          "internalType": "address",
          "name": "operator",
          "type": "address"
        }
      ],
      "name": "ERC721InvalidOperator",
      "type": "error"
    },
    {
      "inputs": [
        {
          "internalType": "address",
          "name": "owner",
          "type": "address"
        }
      ],
      "name": "ERC721InvalidOwner",
      "type": "error"
    },
    {
      "inputs": [
        {
          "internalType": "address",
          "name": "receiver",
          "type": "address"
        }
      ],
      "name": "ERC721InvalidReceiver",
      "type": "error"
    },
    {
      "inputs": [
        {
          "internalType": "address",
          "name": "sender",
          "type": "address"
        }
      ],
      "name": "ERC721InvalidSender",
      "type": "error"
    },
    {
      "inputs": [
        {
          "internalType": "uint256",
          "name": "tokenId",
          "type": "uint256"
        }
      ],
      "name": "ERC721NonexistentToken",
      "type": "error"
    },
    {
      "anonymous": false,
      "inputs": [
        {
          "indexed": true,
          "internalType": "address",
          "name": "owner",
          "type": "address"
        },
        {
          "indexed": true,
          "internalType": "address",
          "name": "approved",
          "type": "address"
        },
        {
          "indexed": true,
          "internalType": "uint256",
          "name": "tokenId",
          "type": "uint256"
        }
      ],
      "name": "Approval",
      "type": "event"
    },
    {
      "anonymous": false,
      "inputs": [
        {
          "indexed": true,
          "internalType": "address",
          "name": "owner",
          "type": "address"
        },
        {
          "indexed": true,
          "internalType": "address",
          "name": "operator",
          "type": "address"
        },
        {
          "indexed": false,
          "internalType": "bool",
          "name": "approved",
          "type": "bool"
        }
      ],
      "name": "ApprovalForAll",
      "type": "event"
    },
    {
      "anonymous": false,
      "inputs": [
        {
          "indexed": false,
          "internalType": "uint256",
          "name": "_fromTokenId",
          "type": "uint256"
        },
        {
          "indexed": false,
          "internalType": "uint256",
          "name": "_toTokenId",
          "type": "uint256"
        }
      ],
      "name": "BatchMetadataUpdate",
      "type": "event"
    },
    {
      "anonymous": false,
      "inputs": [
        {
          "indexed": false,
          "internalType": "address",
          "name": "minter",
          "type": "address"
        },
        {
          "indexed": false,
          "internalType": "uint256",
          "name": "tokenId",
          "type": "uint256"
        }
      ],
      "name": "CreatedNft",
      "type": "event"
    },
    {
      "anonymous": false,
      "inputs": [
        {
          "indexed": false,
          "internalType": "uint256",
          "name": "_tokenId",
          "type": "uint256"
        }
      ],
      "name": "MetadataUpdate",
      "type": "event"
    },
    {
      "anonymous": false,
      "inputs": [
        {
          "indexed": true,
          "internalType": "address",
          "name": "from",
          "type": "address"
        },
        {
          "indexed": true,
          "internalType": "address",
          "name": "to",
          "type": "address"
        },
        {
          "indexed": true,
          "internalType": "uint256",
          "name": "tokenId",
          "type": "uint256"
        }
      ],
      "name": "Transfer",
      "type": "event"
    },
    {
      "inputs": [
        {
          "internalType": "address",
          "name": "to",
          "type": "address"
        },
        {
          "internalType": "uint256",
          "name": "tokenId",
          "type": "uint256"
        }
      ],
      "name": "approve",
      "outputs": [],
      "stateMutability": "nonpayable",
      "type": "function"
    },
    {
      "inputs": [
        {
          "internalType": "address",
          "name": "owner",
          "type": "address"
        }
      ],
      "name": "balanceOf",
      "outputs": [
        {
          "internalType": "uint256",
          "name": "",
          "type": "uint256"
        }
      ],
      "stateMutability": "view",
      "type": "function"
    },
    {
      "inputs": [
        {
          "internalType": "uint256",
          "name": "tokenId",
          "type": "uint256"
        }
      ],
      "name": "getApproved",
      "outputs": [
        {
          "internalType": "address",
          "name": "",
          "type": "address"
        }
      ],
      "stateMutability": "view",
      "type": "function"
    },
    {
      "inputs": [],
      "name": "getCounter",
      "outputs": [
        {
          "internalType": "uint256",
          "name": "",
          "type": "uint256"
        }
      ],
      "stateMutability": "view",
      "type": "function"
    },
    {
      "inputs": [],
      "name": "getHighSvg",
      "outputs": [
        {
          "internalType": "string",
          "name": "",
          "type": "string"
        }
      ],
      "stateMutability": "view",
      "type": "function"
    },
    {
      "inputs": [],
      "name": "getLowSvg",
      "outputs": [
        {
          "internalType": "string",
          "name": "",
          "type": "string"
        }
      ],
      "stateMutability": "view",
      "type": "function"
    },
    {
      "inputs": [],
      "name": "getPriceFeed",
      "outputs": [
        {
          "internalType": "uint256",
          "name": "",
          "type": "uint256"
        }
      ],
      "stateMutability": "view",
      "type": "function"
    },
    {
      "inputs": [],
      "name": "getPriceFeedAddress",
      "outputs": [
        {
          "internalType": "contract AggregatorV3Interface",
          "name": "",
          "type": "address"
        }
      ],
      "stateMutability": "view",
      "type": "function"
    },
    {
      "inputs": [
        {
          "internalType": "address",
          "name": "owner",
          "type": "address"
        },
        {
          "internalType": "address",
          "name": "operator",
          "type": "address"
        }
      ],
      "name": "isApprovedForAll",
      "outputs": [
        {
          "internalType": "bool",
          "name": "",
          "type": "bool"
        }
      ],
      "stateMutability": "view",
      "type": "function"
    },
    {
      "inputs": [
        {
          "internalType": "uint256",
          "name": "highValue",
          "type": "uint256"
        }
      ],
      "name": "mintNft",
      "outputs": [],
      "stateMutability": "nonpayable",
      "type": "function"
    },
    {
      "inputs": [],
      "name": "name",
      "outputs": [
        {
          "internalType": "string",
          "name": "",
          "type": "string"
        }
      ],
      "stateMutability": "view",
      "type": "function"
    },
    {
      "inputs": [
        {
          "internalType": "uint256",
          "name": "tokenId",
          "type": "uint256"
        }
      ],
      "name": "ownerOf",
      "outputs": [
        {
          "internalType": "address",
          "name": "",
          "type": "address"
        }
      ],
      "stateMutability": "view",
      "type": "function"
    },
    {
      "inputs": [
        {
          "internalType": "uint256",
          "name": "",
          "type": "uint256"
        }
      ],
      "name": "s_TokenIdToHighValue",
      "outputs": [
        {
          "internalType": "uint256",
          "name": "",
          "type": "uint256"
        }
      ],
      "stateMutability": "view",
      "type": "function"
    },
    {
      "inputs": [
        {
          "internalType": "address",
          "name": "from",
          "type": "address"
        },
        {
          "internalType": "address",
          "name": "to",
          "type": "address"
        },
        {
          "internalType": "uint256",
          "name": "tokenId",
          "type": "uint256"
        }
      ],
      "name": "safeTransferFrom",
      "outputs": [],
      "stateMutability": "nonpayable",
      "type": "function"
    },
    {
      "inputs": [
        {
          "internalType": "address",
          "name": "from",
          "type": "address"
        },
        {
          "internalType": "address",
          "name": "to",
          "type": "address"
        },
        {
          "internalType": "uint256",
          "name": "tokenId",
          "type": "uint256"
        },
        {
          "internalType": "bytes",
          "name": "data",
          "type": "bytes"
        }
      ],
      "name": "safeTransferFrom",
      "outputs": [],
      "stateMutability": "nonpayable",
      "type": "function"
    },
    {
      "inputs": [
        {
          "internalType": "address",
          "name": "operator",
          "type": "address"
        },
        {
          "internalType": "bool",
          "name": "approved",
          "type": "bool"
        }
      ],
      "name": "setApprovalForAll",
      "outputs": [],
      "stateMutability": "nonpayable",
      "type": "function"
    },
    {
      "inputs": [
        {
          "internalType": "bytes4",
          "name": "interfaceId",
          "type": "bytes4"
        }
      ],
      "name": "supportsInterface",
      "outputs": [
        {
          "internalType": "bool",
          "name": "",
          "type": "bool"
        }
      ],
      "stateMutability": "view",
      "type": "function"
    },
    {
      "inputs": [
        {
          "internalType": "string",
          "name": "svg",
          "type": "string"
        }
      ],
      "name": "svgToImg",
      "outputs": [
        {
          "internalType": "string",
          "name": "",
          "type": "string"
        }
      ],
      "stateMutability": "pure",
      "type": "function"
    },
    {
      "inputs": [],
      "name": "symbol",
      "outputs": [
        {
          "internalType": "string",
          "name": "",
          "type": "string"
        }
      ],
      "stateMutability": "view",
      "type": "function"
    },
    {
      "inputs": [
        {
          "internalType": "uint256",
          "name": "tokenId",
          "type": "uint256"
        }
      ],
      "name": "tokenURI",
      "outputs": [
        {
          "internalType": "string",
          "name": "",
          "type": "string"
        }
      ],
      "stateMutability": "view",
      "type": "function"
    },
    {
      "inputs": [
        {
          "internalType": "address",
          "name": "from",
          "type": "address"
        },
        {
          "internalType": "address",
          "name": "to",
          "type": "address"
        },
        {
          "internalType": "uint256",
          "name": "tokenId",
          "type": "uint256"
        }
      ],
      "name": "transferFrom",
      "outputs": [],
      "stateMutability": "nonpayable",
      "type": "function"
    }
  ],
  "transactionHash": "0x437a6360d061cd6aa95d2e8dbc8198c043aeeaaf4587f5d3ad9295e12745beb5",
  "args": [
    "<?xml version=\"1.0\" standalone=\"no\"?>\n<svg width=\"1024px\" height=\"1024px\" viewBox=\"0 0 1024 1024\" xmlns=\"http://www.w3.org/2000/svg\">\n  <path fill=\"#333\" d=\"M512 64C264.6 64 64 264.6 64 512s200.6 448 448 448 448-200.6 448-448S759.4 64 512 64zm0 820c-205.4 0-372-166.6-372-372s166.6-372 372-372 372 166.6 372 372-166.6 372-372 372z\"/>\n  <path fill=\"#E6E6E6\" d=\"M512 140c-205.4 0-372 166.6-372 372s166.6 372 372 372 372-166.6 372-372-166.6-372-372-372zM288 421a48.01 48.01 0 0 1 96 0 48.01 48.01 0 0 1-96 0zm376 272h-48.1c-4.2 0-7.8-3.2-8.1-7.4C604 636.1 562.5 597 512 597s-92.1 39.1-95.8 88.6c-.3 4.2-3.9 7.4-8.1 7.4H360a8 8 0 0 1-8-8.4c4.4-84.3 74.5-151.6 160-151.6s155.6 67.3 160 151.6a8 8 0 0 1-8 8.4zm24-224a48.01 48.01 0 0 1 0-96 48.01 48.01 0 0 1 0 96z\"/>\n  <path fill=\"#333\" d=\"M288 421a48 48 0 1 0 96 0 48 48 0 1 0-96 0zm224 112c-85.5 0-155.6 67.3-160 151.6a8 8 0 0 0 8 8.4h48.1c4.2 0 7.8-3.2 8.1-7.4 3.7-49.5 45.3-88.6 95.8-88.6s92 39.1 95.8 88.6c.3 4.2 3.9 7.4 8.1 7.4H664a8 8 0 0 0 8-8.4C667.6 600.3 597.5 533 512 533zm128-112a48 48 0 1 0 96 0 48 48 0 1 0-96 0z\"/>\n</svg>",
    "<svg viewBox=\"0 0 200 200\" width=\"400\"  height=\"400\" xmlns=\"http://www.w3.org/2000/svg\">\n  <circle cx=\"100\" cy=\"100\" fill=\"yellow\" r=\"78\" stroke=\"black\" stroke-width=\"3\"/>\n  <g class=\"eyes\">\n    <circle cx=\"61\" cy=\"82\" r=\"12\"/>\n    <circle cx=\"127\" cy=\"82\" r=\"12\"/>\n  </g>\n  <path d=\"m136.81 116.53c.69 26.17-64.11 42-81.52-.73\" style=\"fill:none; stroke: black; stroke-width: 3;\"/>\n</svg>",
    "0x5FbDB2315678afecb367f032d93F642f64180aa3"
  ],
  "numDeployments": 1,
  "solcInputHash": "be05853cfcfb3eca79bedb5d5c583f00",
  "bytecode": "0x60a06040523480156200001157600080fd5b50604051620034e5380380620034e5833981810160405281019062000037919062000568565b6040518060400160405280601a81526020017f426c6f636b636861696e204f7261636c65202044796e616d69630000000000008152506040518060400160405280600381526020017f424f4400000000000000000000000000000000000000000000000000000000008152508160009081620000b491906200084d565b508060019081620000c691906200084d565b505050620000da836200014a60201b60201c565b60099081620000ea91906200084d565b50620000fc826200014a60201b60201c565b600a90816200010c91906200084d565b508073ffffffffffffffffffffffffffffffffffffffff1660808173ffffffffffffffffffffffffffffffffffffffff168152505050505062000ad3565b60606000620001808360405160200162000165919062000976565b604051602081830303815290604052620001e360201b60201c565b90506040518060400160405280601a81526020017f646174613a696d6167652f7376672b786d6c3b6261736536342c00000000000081525081604051602001620001cc9291906200098f565b604051602081830303815290604052915050919050565b6060600082510362000207576040518060200160405280600081525090506200036b565b6000604051806060016040528060408152602001620034a56040913990506000600360028551620002399190620009e6565b62000245919062000a50565b600462000253919062000a88565b90506000602082620002669190620009e6565b67ffffffffffffffff8111156200028257620002816200039f565b5b6040519080825280601f01601f191660200182016040528015620002b55781602001600182028036833780820191505090505b509050818152600183018586518101602084015b8183101562000326576003830192508251603f8160121c168501518253600182019150603f81600c1c168501518253600182019150603f8160061c168501518253600182019150603f8116850151825360018201915050620002c9565b60038951066001811462000343576002811462000354576200035f565b613d3d60f01b60028303526200035f565b603d60f81b60018303525b50505050508093505050505b919050565b6000604051905090565b600080fd5b600080fd5b600080fd5b600080fd5b6000601f19601f8301169050919050565b7f4e487b7100000000000000000000000000000000000000000000000000000000600052604160045260246000fd5b620003d9826200038e565b810181811067ffffffffffffffff82111715620003fb57620003fa6200039f565b5b80604052505050565b60006200041062000370565b90506200041e8282620003ce565b919050565b600067ffffffffffffffff8211156200044157620004406200039f565b5b6200044c826200038e565b9050602081019050919050565b60005b83811015620004795780820151818401526020810190506200045c565b60008484015250505050565b60006200049c620004968462000423565b62000404565b905082815260208101848484011115620004bb57620004ba62000389565b5b620004c884828562000459565b509392505050565b600082601f830112620004e857620004e762000384565b5b8151620004fa84826020860162000485565b91505092915050565b600073ffffffffffffffffffffffffffffffffffffffff82169050919050565b6000620005308262000503565b9050919050565b620005428162000523565b81146200054e57600080fd5b50565b600081519050620005628162000537565b92915050565b6000806000606084860312156200058457620005836200037a565b5b600084015167ffffffffffffffff811115620005a557620005a46200037f565b5b620005b386828701620004d0565b935050602084015167ffffffffffffffff811115620005d757620005d66200037f565b5b620005e586828701620004d0565b9250506040620005f88682870162000551565b9150509250925092565b600081519050919050565b7f4e487b7100000000000000000000000000000000000000000000000000000000600052602260045260246000fd5b600060028204905060018216806200065557607f821691505b6020821081036200066b576200066a6200060d565b5b50919050565b60008190508160005260206000209050919050565b60006020601f8301049050919050565b600082821b905092915050565b600060088302620006d57fffffffffffffffffffffffffffffffffffffffffffffffffffffffffffffffff8262000696565b620006e1868362000696565b95508019841693508086168417925050509392505050565b6000819050919050565b6000819050919050565b60006200072e620007286200072284620006f9565b62000703565b620006f9565b9050919050565b6000819050919050565b6200074a836200070d565b62000762620007598262000735565b848454620006a3565b825550505050565b600090565b620007796200076a565b620007868184846200073f565b505050565b5b81811015620007ae57620007a26000826200076f565b6001810190506200078c565b5050565b601f821115620007fd57620007c78162000671565b620007d28462000686565b81016020851015620007e2578190505b620007fa620007f18562000686565b8301826200078b565b50505b505050565b600082821c905092915050565b6000620008226000198460080262000802565b1980831691505092915050565b60006200083d83836200080f565b9150826002028217905092915050565b620008588262000602565b67ffffffffffffffff8111156200087457620008736200039f565b5b6200088082546200063c565b6200088d828285620007b2565b600060209050601f831160018114620008c55760008415620008b0578287015190505b620008bc85826200082f565b8655506200092c565b601f198416620008d58662000671565b60005b82811015620008ff57848901518255600182019150602085019450602081019050620008d8565b868310156200091f57848901516200091b601f8916826200080f565b8355505b6001600288020188555050505b505050505050565b600081905092915050565b60006200094c8262000602565b62000958818562000934565b93506200096a81856020860162000459565b80840191505092915050565b60006200098482846200093f565b915081905092915050565b60006200099d82856200093f565b9150620009ab82846200093f565b91508190509392505050565b7f4e487b7100000000000000000000000000000000000000000000000000000000600052601160045260246000fd5b6000620009f382620006f9565b915062000a0083620006f9565b925082820190508082111562000a1b5762000a1a620009b7565b5b92915050565b7f4e487b7100000000000000000000000000000000000000000000000000000000600052601260045260246000fd5b600062000a5d82620006f9565b915062000a6a83620006f9565b92508262000a7d5762000a7c62000a21565b5b828204905092915050565b600062000a9582620006f9565b915062000aa283620006f9565b925082820262000ab281620006f9565b9150828204841483151762000acc5762000acb620009b7565b5b5092915050565b6080516129af62000af66000396000818161066d0152610a5701526129af6000f3fe608060405234801561001057600080fd5b50600436106101375760003560e01c80636352211e116100b857806395d89b411161007c57806395d89b41146103625780639e87a5cd14610380578063a22cb4651461039e578063b88d4fde146103ba578063c87b56dd146103d6578063e985e9c51461040657610137565b80636352211e1461029657806370a08231146102c6578063727e2e28146102f65780637e51de74146103145780638ada066e1461034457610137565b80630d730acc116100ff5780630d730acc146101f45780630f0f30b21461021057806323b872dd1461022e5780632d2b24ce1461024a57806342842e0e1461027a57610137565b806301ffc9a71461013c578063045af9161461016c57806306fdde031461018a578063081812fc146101a8578063095ea7b3146101d8575b600080fd5b61015660048036038101906101519190611c26565b610436565b6040516101639190611c6e565b60405180910390f35b610174610497565b6040516101819190611d19565b60405180910390f35b610192610529565b60405161019f9190611d19565b60405180910390f35b6101c260048036038101906101bd9190611d71565b6105bb565b6040516101cf9190611ddf565b60405180910390f35b6101f260048036038101906101ed9190611e26565b6105d7565b005b61020e60048036038101906102099190611d71565b6105ed565b005b610218610669565b6040516102259190611ec5565b60405180910390f35b61024860048036038101906102439190611ee0565b610691565b005b610264600480360381019061025f9190611d71565b610793565b6040516102719190611f42565b60405180910390f35b610294600480360381019061028f9190611ee0565b6107ab565b005b6102b060048036038101906102ab9190611d71565b6107cb565b6040516102bd9190611ddf565b60405180910390f35b6102e060048036038101906102db9190611f5d565b6107dd565b6040516102ed9190611f42565b60405180910390f35b6102fe610897565b60405161030b9190611d19565b60405180910390f35b61032e600480360381019061032991906120bf565b610929565b60405161033b9190611d19565b60405180910390f35b61034c6109b6565b6040516103599190611f42565b60405180910390f35b61036a6109c0565b6040516103779190611d19565b60405180910390f35b610388610a52565b6040516103959190611f42565b60405180910390f35b6103b860048036038101906103b39190612134565b610af1565b005b6103d460048036038101906103cf9190612215565b610b07565b005b6103f060048036038101906103eb9190611d71565b610b24565b6040516103fd9190611d19565b60405180910390f35b610420600480360381019061041b9190612298565b610d4c565b60405161042d9190611c6e565b60405180910390f35b6000634906490660e01b7bffffffffffffffffffffffffffffffffffffffffffffffffffffffff1916827bffffffffffffffffffffffffffffffffffffffffffffffffffffffff19161480610490575061048f82610de0565b5b9050919050565b6060600a80546104a690612307565b80601f01602080910402602001604051908101604052809291908181526020018280546104d290612307565b801561051f5780601f106104f45761010080835404028352916020019161051f565b820191906000526020600020905b81548152906001019060200180831161050257829003601f168201915b5050505050905090565b60606000805461053890612307565b80601f016020809104026020016040519081016040528092919081815260200182805461056490612307565b80156105b15780601f10610586576101008083540402835291602001916105b1565b820191906000526020600020905b81548152906001019060200180831161059457829003601f168201915b5050505050905090565b60006105c682610ec2565b506105d082610f4a565b9050919050565b6105e982826105e4610f87565b610f8f565b5050565b6007600081548092919061060090612367565b919050555061061133600754610fa1565b80600b60006007548152602001908152602001600020819055507f93cd055c8013cbe013d77d9acf9974c8d0cdad34e63b47030589b47d0fc458223360075460405161065e9291906123af565b60405180910390a150565b60007f0000000000000000000000000000000000000000000000000000000000000000905090565b600073ffffffffffffffffffffffffffffffffffffffff168273ffffffffffffffffffffffffffffffffffffffff16036107035760006040517f64a0ae920000000000000000000000000000000000000000000000000000000081526004016106fa9190611ddf565b60405180910390fd5b60006107178383610712610f87565b610fbf565b90508373ffffffffffffffffffffffffffffffffffffffff168173ffffffffffffffffffffffffffffffffffffffff161461078d578382826040517f64283d7b000000000000000000000000000000000000000000000000000000008152600401610784939291906123d8565b60405180910390fd5b50505050565b600b6020528060005260406000206000915090505481565b6107c683838360405180602001604052806000815250610b07565b505050565b60006107d682610ec2565b9050919050565b60008073ffffffffffffffffffffffffffffffffffffffff168273ffffffffffffffffffffffffffffffffffffffff16036108505760006040517f89c62b640000000000000000000000000000000000000000000000000000000081526004016108479190611ddf565b60405180910390fd5b600360008373ffffffffffffffffffffffffffffffffffffffff1673ffffffffffffffffffffffffffffffffffffffff168152602001908152602001600020549050919050565b6060600980546108a690612307565b80601f01602080910402602001604051908101604052809291908181526020018280546108d290612307565b801561091f5780601f106108f45761010080835404028352916020019161091f565b820191906000526020600020905b81548152906001019060200180831161090257829003601f168201915b5050505050905090565b6060600061095583604051602001610941919061244b565b6040516020818303038152906040526111d9565b90506040518060400160405280601a81526020017f646174613a696d6167652f7376672b786d6c3b6261736536342c0000000000008152508160405160200161099f929190612462565b604051602081830303815290604052915050919050565b6000600754905090565b6060600180546109cf90612307565b80601f01602080910402602001604051908101604052809291908181526020018280546109fb90612307565b8015610a485780601f10610a1d57610100808354040283529160200191610a48565b820191906000526020600020905b815481529060010190602001808311610a2b57829003601f168201915b5050505050905090565b6000807f000000000000000000000000000000000000000000000000000000000000000073ffffffffffffffffffffffffffffffffffffffff1663feaf968c6040518163ffffffff1660e01b815260040160a060405180830381865afa158015610ac0573d6000803e3d6000fd5b505050506040513d601f19601f82011682018060405250810190610ae49190612513565b5050509150508091505090565b610b03610afc610f87565b8383611351565b5050565b610b12848484610691565b610b1e848484846114c0565b50505050565b60606000610b3183611677565b9050600073ffffffffffffffffffffffffffffffffffffffff168173ffffffffffffffffffffffffffffffffffffffff1603610ba457826040517f7e273289000000000000000000000000000000000000000000000000000000008152600401610b9b9190611f42565b60405180910390fd5b6000610bae610a52565b9050600060098054610bbf90612307565b80601f0160208091040260200160405190810160405280929190818152602001828054610beb90612307565b8015610c385780601f10610c0d57610100808354040283529160200191610c38565b820191906000526020600020905b815481529060010190602001808311610c1b57829003601f168201915b50505050509050600b60006007548152602001908152602001600020548210610ce957600a8054610c6890612307565b80601f0160208091040260200160405190810160405280929190818152602001828054610c9490612307565b8015610ce15780601f10610cb657610100808354040283529160200191610ce1565b820191906000526020600020905b815481529060010190602001808311610cc457829003601f168201915b505050505090505b610cf16116b4565b610d22610cfc610529565b83604051602001610d0e929190612730565b6040516020818303038152906040526111d9565b604051602001610d33929190612462565b6040516020818303038152906040529350505050919050565b6000600560008473ffffffffffffffffffffffffffffffffffffffff1673ffffffffffffffffffffffffffffffffffffffff16815260200190815260200160002060008373ffffffffffffffffffffffffffffffffffffffff1673ffffffffffffffffffffffffffffffffffffffff16815260200190815260200160002060009054906101000a900460ff16905092915050565b60007f80ac58cd000000000000000000000000000000000000000000000000000000007bffffffffffffffffffffffffffffffffffffffffffffffffffffffff1916827bffffffffffffffffffffffffffffffffffffffffffffffffffffffff19161480610eab57507f5b5e139f000000000000000000000000000000000000000000000000000000007bffffffffffffffffffffffffffffffffffffffffffffffffffffffff1916827bffffffffffffffffffffffffffffffffffffffffffffffffffffffff1916145b80610ebb5750610eba826116f1565b5b9050919050565b600080610ece83611677565b9050600073ffffffffffffffffffffffffffffffffffffffff168173ffffffffffffffffffffffffffffffffffffffff1603610f4157826040517f7e273289000000000000000000000000000000000000000000000000000000008152600401610f389190611f42565b60405180910390fd5b80915050919050565b60006004600083815260200190815260200160002060009054906101000a900473ffffffffffffffffffffffffffffffffffffffff169050919050565b600033905090565b610f9c838383600161175b565b505050565b610fbb828260405180602001604052806000815250611920565b5050565b600080610fcb84611677565b9050600073ffffffffffffffffffffffffffffffffffffffff168373ffffffffffffffffffffffffffffffffffffffff161461100d5761100c81848661193c565b5b600073ffffffffffffffffffffffffffffffffffffffff168173ffffffffffffffffffffffffffffffffffffffff161461109e5761104f60008560008061175b565b6001600360008373ffffffffffffffffffffffffffffffffffffffff1673ffffffffffffffffffffffffffffffffffffffff168152602001908152602001600020600082825403925050819055505b600073ffffffffffffffffffffffffffffffffffffffff168573ffffffffffffffffffffffffffffffffffffffff1614611121576001600360008773ffffffffffffffffffffffffffffffffffffffff1673ffffffffffffffffffffffffffffffffffffffff168152602001908152602001600020600082825401925050819055505b846002600086815260200190815260200160002060006101000a81548173ffffffffffffffffffffffffffffffffffffffff021916908373ffffffffffffffffffffffffffffffffffffffff160217905550838573ffffffffffffffffffffffffffffffffffffffff168273ffffffffffffffffffffffffffffffffffffffff167fddf252ad1be2c89b69c2b068fc378daa952ba7f163c4a11628f55a4df523b3ef60405160405180910390a4809150509392505050565b606060008251036111fb5760405180602001604052806000815250905061134c565b600060405180606001604052806040815260200161293a604091399050600060036002855161122a9190612780565b61123491906127e3565b60046112409190612814565b905060006020826112519190612780565b67ffffffffffffffff81111561126a57611269611f94565b5b6040519080825280601f01601f19166020018201604052801561129c5781602001600182028036833780820191505090505b509050818152600183018586518101602084015b8183101561130b576003830192508251603f8160121c168501518253600182019150603f81600c1c168501518253600182019150603f8160061c168501518253600182019150603f81168501518253600182019150506112b0565b600389510660018114611325576002811461133557611340565b613d3d60f01b6002830352611340565b603d60f81b60018303525b50505050508093505050505b919050565b600073ffffffffffffffffffffffffffffffffffffffff168273ffffffffffffffffffffffffffffffffffffffff16036113c257816040517f5b08ba180000000000000000000000000000000000000000000000000000000081526004016113b99190611ddf565b60405180910390fd5b80600560008573ffffffffffffffffffffffffffffffffffffffff1673ffffffffffffffffffffffffffffffffffffffff16815260200190815260200160002060008473ffffffffffffffffffffffffffffffffffffffff1673ffffffffffffffffffffffffffffffffffffffff16815260200190815260200160002060006101000a81548160ff0219169083151502179055508173ffffffffffffffffffffffffffffffffffffffff168373ffffffffffffffffffffffffffffffffffffffff167f17307eab39ab6107e8899845ad3d59bd9653f200f220920489ca2b5937696c31836040516114b39190611c6e565b60405180910390a3505050565b60008373ffffffffffffffffffffffffffffffffffffffff163b1115611671578273ffffffffffffffffffffffffffffffffffffffff1663150b7a02611504610f87565b8685856040518563ffffffff1660e01b815260040161152694939291906128ab565b6020604051808303816000875af192505050801561156257506040513d601f19601f8201168201806040525081019061155f919061290c565b60015b6115e6573d8060008114611592576040519150601f19603f3d011682016040523d82523d6000602084013e611597565b606091505b5060008151036115de57836040517f64a0ae920000000000000000000000000000000000000000000000000000000081526004016115d59190611ddf565b60405180910390fd5b805181602001fd5b63150b7a0260e01b7bffffffffffffffffffffffffffffffffffffffffffffffffffffffff1916817bffffffffffffffffffffffffffffffffffffffffffffffffffffffff19161461166f57836040517f64a0ae920000000000000000000000000000000000000000000000000000000081526004016116669190611ddf565b60405180910390fd5b505b50505050565b60006002600083815260200190815260200160002060009054906101000a900473ffffffffffffffffffffffffffffffffffffffff169050919050565b60606040518060400160405280601d81526020017f646174613a6170706c69636174696f6e2f6a736f6e3b6261736536342c000000815250905090565b60007f01ffc9a7000000000000000000000000000000000000000000000000000000007bffffffffffffffffffffffffffffffffffffffffffffffffffffffff1916827bffffffffffffffffffffffffffffffffffffffffffffffffffffffff1916149050919050565b80806117945750600073ffffffffffffffffffffffffffffffffffffffff168273ffffffffffffffffffffffffffffffffffffffff1614155b156118c85760006117a484610ec2565b9050600073ffffffffffffffffffffffffffffffffffffffff168373ffffffffffffffffffffffffffffffffffffffff161415801561180f57508273ffffffffffffffffffffffffffffffffffffffff168173ffffffffffffffffffffffffffffffffffffffff1614155b801561182257506118208184610d4c565b155b1561186457826040517fa9fbf51f00000000000000000000000000000000000000000000000000000000815260040161185b9190611ddf565b60405180910390fd5b81156118c657838573ffffffffffffffffffffffffffffffffffffffff168273ffffffffffffffffffffffffffffffffffffffff167f8c5be1e5ebec7d5bd14f71427d1e84f3dd0314c0f7b2291e5b200ac8c7c3b92560405160405180910390a45b505b836004600085815260200190815260200160002060006101000a81548173ffffffffffffffffffffffffffffffffffffffff021916908373ffffffffffffffffffffffffffffffffffffffff16021790555050505050565b61192a8383611a00565b61193760008484846114c0565b505050565b611947838383611af9565b6119fb57600073ffffffffffffffffffffffffffffffffffffffff168373ffffffffffffffffffffffffffffffffffffffff16036119bc57806040517f7e2732890000000000000000000000000000000000000000000000000000000081526004016119b39190611f42565b60405180910390fd5b81816040517f177e802f0000000000000000000000000000000000000000000000000000000081526004016119f29291906123af565b60405180910390fd5b505050565b600073ffffffffffffffffffffffffffffffffffffffff168273ffffffffffffffffffffffffffffffffffffffff1603611a725760006040517f64a0ae92000000000000000000000000000000000000000000000000000000008152600401611a699190611ddf565b60405180910390fd5b6000611a8083836000610fbf565b9050600073ffffffffffffffffffffffffffffffffffffffff168173ffffffffffffffffffffffffffffffffffffffff1614611af45760006040517f73c6ac6e000000000000000000000000000000000000000000000000000000008152600401611aeb9190611ddf565b60405180910390fd5b505050565b60008073ffffffffffffffffffffffffffffffffffffffff168373ffffffffffffffffffffffffffffffffffffffff1614158015611bb157508273ffffffffffffffffffffffffffffffffffffffff168473ffffffffffffffffffffffffffffffffffffffff161480611b725750611b718484610d4c565b5b80611bb057508273ffffffffffffffffffffffffffffffffffffffff16611b9883610f4a565b73ffffffffffffffffffffffffffffffffffffffff16145b5b90509392505050565b6000604051905090565b600080fd5b600080fd5b60007fffffffff0000000000000000000000000000000000000000000000000000000082169050919050565b611c0381611bce565b8114611c0e57600080fd5b50565b600081359050611c2081611bfa565b92915050565b600060208284031215611c3c57611c3b611bc4565b5b6000611c4a84828501611c11565b91505092915050565b60008115159050919050565b611c6881611c53565b82525050565b6000602082019050611c836000830184611c5f565b92915050565b600081519050919050565b600082825260208201905092915050565b60005b83811015611cc3578082015181840152602081019050611ca8565b60008484015250505050565b6000601f19601f8301169050919050565b6000611ceb82611c89565b611cf58185611c94565b9350611d05818560208601611ca5565b611d0e81611ccf565b840191505092915050565b60006020820190508181036000830152611d338184611ce0565b905092915050565b6000819050919050565b611d4e81611d3b565b8114611d5957600080fd5b50565b600081359050611d6b81611d45565b92915050565b600060208284031215611d8757611d86611bc4565b5b6000611d9584828501611d5c565b91505092915050565b600073ffffffffffffffffffffffffffffffffffffffff82169050919050565b6000611dc982611d9e565b9050919050565b611dd981611dbe565b82525050565b6000602082019050611df46000830184611dd0565b92915050565b611e0381611dbe565b8114611e0e57600080fd5b50565b600081359050611e2081611dfa565b92915050565b60008060408385031215611e3d57611e3c611bc4565b5b6000611e4b85828601611e11565b9250506020611e5c85828601611d5c565b9150509250929050565b6000819050919050565b6000611e8b611e86611e8184611d9e565b611e66565b611d9e565b9050919050565b6000611e9d82611e70565b9050919050565b6000611eaf82611e92565b9050919050565b611ebf81611ea4565b82525050565b6000602082019050611eda6000830184611eb6565b92915050565b600080600060608486031215611ef957611ef8611bc4565b5b6000611f0786828701611e11565b9350506020611f1886828701611e11565b9250506040611f2986828701611d5c565b9150509250925092565b611f3c81611d3b565b82525050565b6000602082019050611f576000830184611f33565b92915050565b600060208284031215611f7357611f72611bc4565b5b6000611f8184828501611e11565b91505092915050565b600080fd5b600080fd5b7f4e487b7100000000000000000000000000000000000000000000000000000000600052604160045260246000fd5b611fcc82611ccf565b810181811067ffffffffffffffff82111715611feb57611fea611f94565b5b80604052505050565b6000611ffe611bba565b905061200a8282611fc3565b919050565b600067ffffffffffffffff82111561202a57612029611f94565b5b61203382611ccf565b9050602081019050919050565b82818337600083830152505050565b600061206261205d8461200f565b611ff4565b90508281526020810184848401111561207e5761207d611f8f565b5b612089848285612040565b509392505050565b600082601f8301126120a6576120a5611f8a565b5b81356120b684826020860161204f565b91505092915050565b6000602082840312156120d5576120d4611bc4565b5b600082013567ffffffffffffffff8111156120f3576120f2611bc9565b5b6120ff84828501612091565b91505092915050565b61211181611c53565b811461211c57600080fd5b50565b60008135905061212e81612108565b92915050565b6000806040838503121561214b5761214a611bc4565b5b600061215985828601611e11565b925050602061216a8582860161211f565b9150509250929050565b600067ffffffffffffffff82111561218f5761218e611f94565b5b61219882611ccf565b9050602081019050919050565b60006121b86121b384612174565b611ff4565b9050828152602081018484840111156121d4576121d3611f8f565b5b6121df848285612040565b509392505050565b600082601f8301126121fc576121fb611f8a565b5b813561220c8482602086016121a5565b91505092915050565b6000806000806080858703121561222f5761222e611bc4565b5b600061223d87828801611e11565b945050602061224e87828801611e11565b935050604061225f87828801611d5c565b925050606085013567ffffffffffffffff8111156122805761227f611bc9565b5b61228c878288016121e7565b91505092959194509250565b600080604083850312156122af576122ae611bc4565b5b60006122bd85828601611e11565b92505060206122ce85828601611e11565b9150509250929050565b7f4e487b7100000000000000000000000000000000000000000000000000000000600052602260045260246000fd5b6000600282049050600182168061231f57607f821691505b602082108103612332576123316122d8565b5b50919050565b7f4e487b7100000000000000000000000000000000000000000000000000000000600052601160045260246000fd5b600061237282611d3b565b91507fffffffffffffffffffffffffffffffffffffffffffffffffffffffffffffffff82036123a4576123a3612338565b5b600182019050919050565b60006040820190506123c46000830185611dd0565b6123d16020830184611f33565b9392505050565b60006060820190506123ed6000830186611dd0565b6123fa6020830185611f33565b6124076040830184611dd0565b949350505050565b600081905092915050565b600061242582611c89565b61242f818561240f565b935061243f818560208601611ca5565b80840191505092915050565b6000612457828461241a565b915081905092915050565b600061246e828561241a565b915061247a828461241a565b91508190509392505050565b600069ffffffffffffffffffff82169050919050565b6124a581612486565b81146124b057600080fd5b50565b6000815190506124c28161249c565b92915050565b6000819050919050565b6124db816124c8565b81146124e657600080fd5b50565b6000815190506124f8816124d2565b92915050565b60008151905061250d81611d45565b92915050565b600080600080600060a0868803121561252f5761252e611bc4565b5b600061253d888289016124b3565b955050602061254e888289016124e9565b945050604061255f888289016124fe565b9350506060612570888289016124fe565b9250506080612581888289016124b3565b9150509295509295909350565b7f7b226e616d65223a220000000000000000000000000000000000000000000000600082015250565b60006125c460098361240f565b91506125cf8261258e565b600982019050919050565b7f222c2020226465736372697074696f6e223a22416e204e46542074686174206360008201527f68616e6765206261736564206f6e207072696365222c00000000000000000000602082015250565b600061263660368361240f565b9150612641826125da565b603682019050919050565b7f2261747472696275746573223a5b7b2274726169745f74797065223a2022636f60008201527f6f6c6e657373222c202276616c7565223a3130307d5d2c2022696d616765223a60208201527f2200000000000000000000000000000000000000000000000000000000000000604082015250565b60006126ce60418361240f565b91506126d98261264c565b604182019050919050565b7f227d000000000000000000000000000000000000000000000000000000000000600082015250565b600061271a60028361240f565b9150612725826126e4565b600282019050919050565b600061273b826125b7565b9150612747828561241a565b915061275282612629565b915061275d826126c1565b9150612769828461241a565b91506127748261270d565b91508190509392505050565b600061278b82611d3b565b915061279683611d3b565b92508282019050808211156127ae576127ad612338565b5b92915050565b7f4e487b7100000000000000000000000000000000000000000000000000000000600052601260045260246000fd5b60006127ee82611d3b565b91506127f983611d3b565b925082612809576128086127b4565b5b828204905092915050565b600061281f82611d3b565b915061282a83611d3b565b925082820261283881611d3b565b9150828204841483151761284f5761284e612338565b5b5092915050565b600081519050919050565b600082825260208201905092915050565b600061287d82612856565b6128878185612861565b9350612897818560208601611ca5565b6128a081611ccf565b840191505092915050565b60006080820190506128c06000830187611dd0565b6128cd6020830186611dd0565b6128da6040830185611f33565b81810360608301526128ec8184612872565b905095945050505050565b60008151905061290681611bfa565b92915050565b60006020828403121561292257612921611bc4565b5b6000612930848285016128f7565b9150509291505056fe4142434445464748494a4b4c4d4e4f505152535455565758595a6162636465666768696a6b6c6d6e6f707172737475767778797a303132333435363738392b2fa264697066735822122094ed1208f7512c3638ab2ffe6b44703c743f245500de0729b01edd0ab0328ef464736f6c634300081400334142434445464748494a4b4c4d4e4f505152535455565758595a6162636465666768696a6b6c6d6e6f707172737475767778797a303132333435363738392b2f",
  "devdoc": {
    "errors": {
      "ERC721IncorrectOwner(address,uint256,address)": [
        {
          "details": "Indicates an error related to the ownership over a particular token. Used in transfers.",
          "params": {
            "owner": "Address of the current owner of a token.",
            "sender": "Address whose tokens are being transferred.",
            "tokenId": "Identifier number of a token."
          }
        }
      ],
      "ERC721InsufficientApproval(address,uint256)": [
        {
          "details": "Indicates a failure with the `operator`s approval. Used in transfers.",
          "params": {
            "operator": "Address that may be allowed to operate on tokens without being their owner.",
            "tokenId": "Identifier number of a token."
          }
        }
      ],
      "ERC721InvalidApprover(address)": [
        {
          "details": "Indicates a failure with the `approver` of a token to be approved. Used in approvals.",
          "params": {
            "approver": "Address initiating an approval operation."
          }
        }
      ],
      "ERC721InvalidOperator(address)": [
        {
          "details": "Indicates a failure with the `operator` to be approved. Used in approvals.",
          "params": {
            "operator": "Address that may be allowed to operate on tokens without being their owner."
          }
        }
      ],
      "ERC721InvalidOwner(address)": [
        {
          "details": "Indicates that an address can't be an owner. For example, `address(0)` is a forbidden owner in EIP-20. Used in balance queries.",
          "params": {
            "owner": "Address of the current owner of a token."
          }
        }
      ],
      "ERC721InvalidReceiver(address)": [
        {
          "details": "Indicates a failure with the token `receiver`. Used in transfers.",
          "params": {
            "receiver": "Address to which tokens are being transferred."
          }
        }
      ],
      "ERC721InvalidSender(address)": [
        {
          "details": "Indicates a failure with the token `sender`. Used in transfers.",
          "params": {
            "sender": "Address whose tokens are being transferred."
          }
        }
      ],
      "ERC721NonexistentToken(uint256)": [
        {
          "details": "Indicates a `tokenId` whose `owner` is the zero address.",
          "params": {
            "tokenId": "Identifier number of a token."
          }
        }
      ]
    },
    "events": {
      "Approval(address,address,uint256)": {
        "details": "Emitted when `owner` enables `approved` to manage the `tokenId` token."
      },
      "ApprovalForAll(address,address,bool)": {
        "details": "Emitted when `owner` enables or disables (`approved`) `operator` to manage all of its assets."
      },
      "BatchMetadataUpdate(uint256,uint256)": {
        "details": "This event emits when the metadata of a range of tokens is changed. So that the third-party platforms such as NFT market could timely update the images and related attributes of the NFTs."
      },
      "MetadataUpdate(uint256)": {
        "details": "This event emits when the metadata of a token is changed. So that the third-party platforms such as NFT market could timely update the images and related attributes of the NFT."
      },
      "Transfer(address,address,uint256)": {
        "details": "Emitted when `tokenId` token is transferred from `from` to `to`."
      }
    },
    "kind": "dev",
    "methods": {
      "approve(address,uint256)": {
        "details": "See {IERC721-approve}."
      },
      "balanceOf(address)": {
        "details": "See {IERC721-balanceOf}."
      },
      "getApproved(uint256)": {
        "details": "See {IERC721-getApproved}."
      },
      "isApprovedForAll(address,address)": {
        "details": "See {IERC721-isApprovedForAll}."
      },
      "name()": {
        "details": "See {IERC721Metadata-name}."
      },
      "ownerOf(uint256)": {
        "details": "See {IERC721-ownerOf}."
      },
      "safeTransferFrom(address,address,uint256)": {
        "details": "See {IERC721-safeTransferFrom}."
      },
      "safeTransferFrom(address,address,uint256,bytes)": {
        "details": "See {IERC721-safeTransferFrom}."
      },
      "setApprovalForAll(address,bool)": {
        "details": "See {IERC721-setApprovalForAll}."
      },
      "supportsInterface(bytes4)": {
        "details": "See {IERC165-supportsInterface}"
      },
      "symbol()": {
        "details": "See {IERC721Metadata-symbol}."
      },
      "tokenURI(uint256)": {
        "details": "See {IERC721Metadata-tokenURI}."
      },
      "transferFrom(address,address,uint256)": {
        "details": "See {IERC721-transferFrom}."
      }
    },
    "version": 1
  },
  "userdoc": {
    "kind": "user",
    "methods": {},
    "version": 1
  },
  "storageLayout": {
    "storage": [
      {
        "astId": 395,
        "contract": "contracts/DynamicNft.sol:DynamicNft",
        "label": "_name",
        "offset": 0,
        "slot": "0",
        "type": "t_string_storage"
      },
      {
        "astId": 397,
        "contract": "contracts/DynamicNft.sol:DynamicNft",
        "label": "_symbol",
        "offset": 0,
        "slot": "1",
        "type": "t_string_storage"
      },
      {
        "astId": 401,
        "contract": "contracts/DynamicNft.sol:DynamicNft",
        "label": "_owners",
        "offset": 0,
        "slot": "2",
        "type": "t_mapping(t_uint256,t_address)"
      },
      {
        "astId": 405,
        "contract": "contracts/DynamicNft.sol:DynamicNft",
        "label": "_balances",
        "offset": 0,
        "slot": "3",
        "type": "t_mapping(t_address,t_uint256)"
      },
      {
        "astId": 409,
        "contract": "contracts/DynamicNft.sol:DynamicNft",
        "label": "_tokenApprovals",
        "offset": 0,
        "slot": "4",
        "type": "t_mapping(t_uint256,t_address)"
      },
      {
        "astId": 415,
        "contract": "contracts/DynamicNft.sol:DynamicNft",
        "label": "_operatorApprovals",
        "offset": 0,
        "slot": "5",
        "type": "t_mapping(t_address,t_mapping(t_address,t_bool))"
      },
      {
        "astId": 1534,
        "contract": "contracts/DynamicNft.sol:DynamicNft",
        "label": "_tokenURIs",
        "offset": 0,
        "slot": "6",
        "type": "t_mapping(t_uint256,t_string_storage)"
      },
      {
        "astId": 3266,
        "contract": "contracts/DynamicNft.sol:DynamicNft",
        "label": "s_counter",
        "offset": 0,
        "slot": "7",
        "type": "t_uint256"
      },
      {
        "astId": 3268,
        "contract": "contracts/DynamicNft.sol:DynamicNft",
        "label": "TOKENURI",
        "offset": 0,
        "slot": "8",
        "type": "t_string_storage"
      },
      {
        "astId": 3270,
        "contract": "contracts/DynamicNft.sol:DynamicNft",
        "label": "i_lowSvg",
        "offset": 0,
        "slot": "9",
        "type": "t_string_storage"
      },
      {
        "astId": 3272,
        "contract": "contracts/DynamicNft.sol:DynamicNft",
        "label": "i_highSvg",
        "offset": 0,
        "slot": "10",
        "type": "t_string_storage"
      },
      {
        "astId": 3282,
        "contract": "contracts/DynamicNft.sol:DynamicNft",
        "label": "s_TokenIdToHighValue",
        "offset": 0,
        "slot": "11",
        "type": "t_mapping(t_uint256,t_uint256)"
      }
    ],
    "types": {
      "t_address": {
        "encoding": "inplace",
        "label": "address",
        "numberOfBytes": "20"
      },
      "t_bool": {
        "encoding": "inplace",
        "label": "bool",
        "numberOfBytes": "1"
      },
      "t_mapping(t_address,t_bool)": {
        "encoding": "mapping",
        "key": "t_address",
        "label": "mapping(address => bool)",
        "numberOfBytes": "32",
        "value": "t_bool"
      },
      "t_mapping(t_address,t_mapping(t_address,t_bool))": {
        "encoding": "mapping",
        "key": "t_address",
        "label": "mapping(address => mapping(address => bool))",
        "numberOfBytes": "32",
        "value": "t_mapping(t_address,t_bool)"
      },
      "t_mapping(t_address,t_uint256)": {
        "encoding": "mapping",
        "key": "t_address",
        "label": "mapping(address => uint256)",
        "numberOfBytes": "32",
        "value": "t_uint256"
      },
      "t_mapping(t_uint256,t_address)": {
        "encoding": "mapping",
        "key": "t_uint256",
        "label": "mapping(uint256 => address)",
        "numberOfBytes": "32",
        "value": "t_address"
      },
      "t_mapping(t_uint256,t_string_storage)": {
        "encoding": "mapping",
        "key": "t_uint256",
        "label": "mapping(uint256 => string)",
        "numberOfBytes": "32",
        "value": "t_string_storage"
      },
      "t_mapping(t_uint256,t_uint256)": {
        "encoding": "mapping",
        "key": "t_uint256",
        "label": "mapping(uint256 => uint256)",
        "numberOfBytes": "32",
        "value": "t_uint256"
      },
      "t_string_storage": {
        "encoding": "bytes",
        "label": "string",
        "numberOfBytes": "32"
      },
      "t_uint256": {
        "encoding": "inplace",
        "label": "uint256",
        "numberOfBytes": "32"
      }
    }
  }
}