{
  "address": "0x5FC8d32690cc91D4c39d9d3abcBD16989F875707",
  "abi": [
    {
      "inputs": [
        {
          "internalType": "address",
          "name": "_vrfCoordinator",
          "type": "address"
        },
        {
          "internalType": "uint64",
          "name": "_subscriptionId",
          "type": "uint64"
        },
        {
          "internalType": "bytes32",
          "name": "_keyHash",
          "type": "bytes32"
        },
        {
          "internalType": "uint32",
          "name": "_callbackGasLimit",
          "type": "uint32"
        },
        {
          "internalType": "uint256",
          "name": "_amount",
          "type": "uint256"
        },
        {
          "internalType": "string[3]",
          "name": "_tokenuri",
          "type": "string[3]"
        }
      ],
      "stateMutability": "nonpayable",
      "type": "constructor"
    },
    {
      "inputs": [
        {
          "internalType": "address",
          "name": "sender",
          "type": "address"
        },
        {
          "internalType": "uint256",
          "name": "tokenId",
          "type": "uint256"
        },
        {
          "internalType": "address",
          "name": "owner",
          "type": "address"
        }
      ],
      "name": "ERC721IncorrectOwner",
      "type": "error"
    },
    {
      "inputs": [
        {
          "internalType": "address",
          "name": "operator",
          "type": "address"
        },
        {
          "internalType": "uint256",
          "name": "tokenId",
          "type": "uint256"
        }
      ],
      "name": "ERC721InsufficientApproval",
      "type": "error"
    },
    {
      "inputs": [
        {
          "internalType": "address",
          "name": "approver",
          "type": "address"
        }
      ],
      "name": "ERC721InvalidApprover",
      "type": "error"
    },
    {
      "inputs": [
        {
          "internalType": "address",
          "name": "operator",
          "type": "address"
        }
      ],
      "name": "ERC721InvalidOperator",
      "type": "error"
    },
    {
      "inputs": [
        {
          "internalType": "address",
          "name": "owner",
          "type": "address"
        }
      ],
      "name": "ERC721InvalidOwner",
      "type": "error"
    },
    {
      "inputs": [
        {
          "internalType": "address",
          "name": "receiver",
          "type": "address"
        }
      ],
      "name": "ERC721InvalidReceiver",
      "type": "error"
    },
    {
      "inputs": [
        {
          "internalType": "address",
          "name": "sender",
          "type": "address"
        }
      ],
      "name": "ERC721InvalidSender",
      "type": "error"
    },
    {
      "inputs": [
        {
          "internalType": "uint256",
          "name": "tokenId",
          "type": "uint256"
        }
      ],
      "name": "ERC721NonexistentToken",
      "type": "error"
    },
    {
      "inputs": [
        {
          "internalType": "address",
          "name": "have",
          "type": "address"
        },
        {
          "internalType": "address",
          "name": "want",
          "type": "address"
        }
      ],
      "name": "OnlyCoordinatorCanFulfill",
      "type": "error"
    },
    {
      "inputs": [],
      "name": "RandomIPFSNFT__NotEnoughEthSent",
      "type": "error"
    },
    {
      "inputs": [],
      "name": "RandomIPFSNFT__NotOwner",
      "type": "error"
    },
    {
      "inputs": [],
      "name": "RandomIPFSNFT__RangeOutOfBounds",
      "type": "error"
    },
    {
      "inputs": [],
      "name": "RandomIPFSNFT__WithdrawlFailed",
      "type": "error"
    },
    {
      "anonymous": false,
      "inputs": [
        {
          "indexed": true,
          "internalType": "address",
          "name": "owner",
          "type": "address"
        },
        {
          "indexed": true,
          "internalType": "address",
          "name": "approved",
          "type": "address"
        },
        {
          "indexed": true,
          "internalType": "uint256",
          "name": "tokenId",
          "type": "uint256"
        }
      ],
      "name": "Approval",
      "type": "event"
    },
    {
      "anonymous": false,
      "inputs": [
        {
          "indexed": true,
          "internalType": "address",
          "name": "owner",
          "type": "address"
        },
        {
          "indexed": true,
          "internalType": "address",
          "name": "operator",
          "type": "address"
        },
        {
          "indexed": false,
          "internalType": "bool",
          "name": "approved",
          "type": "bool"
        }
      ],
      "name": "ApprovalForAll",
      "type": "event"
    },
    {
      "anonymous": false,
      "inputs": [
        {
          "indexed": false,
          "internalType": "uint256",
          "name": "_fromTokenId",
          "type": "uint256"
        },
        {
          "indexed": false,
          "internalType": "uint256",
          "name": "_toTokenId",
          "type": "uint256"
        }
      ],
      "name": "BatchMetadataUpdate",
      "type": "event"
    },
    {
      "anonymous": false,
      "inputs": [
        {
          "indexed": false,
          "internalType": "uint256",
          "name": "_tokenId",
          "type": "uint256"
        }
      ],
      "name": "MetadataUpdate",
      "type": "event"
    },
    {
      "anonymous": false,
      "inputs": [
        {
          "indexed": false,
          "internalType": "enum RandomIPFSNFT.Breed",
          "name": "dogBreed",
          "type": "uint8"
        },
        {
          "indexed": false,
          "internalType": "address",
          "name": "minter",
          "type": "address"
        }
      ],
      "name": "NftMinted",
      "type": "event"
    },
    {
      "anonymous": false,
      "inputs": [
        {
          "indexed": true,
          "internalType": "address",
          "name": "from",
          "type": "address"
        },
        {
          "indexed": true,
          "internalType": "address",
          "name": "to",
          "type": "address"
        },
        {
          "indexed": true,
          "internalType": "uint256",
          "name": "tokenId",
          "type": "uint256"
        }
      ],
      "name": "Transfer",
      "type": "event"
    },
    {
      "anonymous": false,
      "inputs": [
        {
          "indexed": true,
          "internalType": "uint256",
          "name": "requestId",
          "type": "uint256"
        },
        {
          "indexed": true,
          "internalType": "address",
          "name": "sender",
          "type": "address"
        }
      ],
      "name": "nftRequest",
      "type": "event"
    },
    {
      "inputs": [
        {
          "internalType": "address",
          "name": "to",
          "type": "address"
        },
        {
          "internalType": "uint256",
          "name": "tokenId",
          "type": "uint256"
        }
      ],
      "name": "approve",
      "outputs": [],
      "stateMutability": "nonpayable",
      "type": "function"
    },
    {
      "inputs": [
        {
          "internalType": "address",
          "name": "owner",
          "type": "address"
        }
      ],
      "name": "balanceOf",
      "outputs": [
        {
          "internalType": "uint256",
          "name": "",
          "type": "uint256"
        }
      ],
      "stateMutability": "view",
      "type": "function"
    },
    {
      "inputs": [
        {
          "internalType": "uint256",
          "name": "tokenId",
          "type": "uint256"
        }
      ],
      "name": "getApproved",
      "outputs": [
        {
          "internalType": "address",
          "name": "",
          "type": "address"
        }
      ],
      "stateMutability": "view",
      "type": "function"
    },
    {
      "inputs": [
        {
          "internalType": "uint256",
          "name": "moddedRng",
          "type": "uint256"
        }
      ],
      "name": "getBreedFromModdedRng",
      "outputs": [
        {
          "internalType": "enum RandomIPFSNFT.Breed",
          "name": "",
          "type": "uint8"
        }
      ],
      "stateMutability": "pure",
      "type": "function"
    },
    {
      "inputs": [],
      "name": "getCallBackGaaLimit",
      "outputs": [
        {
          "internalType": "uint32",
          "name": "",
          "type": "uint32"
        }
      ],
      "stateMutability": "view",
      "type": "function"
    },
    {
      "inputs": [],
      "name": "getChance",
      "outputs": [
        {
          "internalType": "uint256[3]",
          "name": "",
          "type": "uint256[3]"
        }
      ],
      "stateMutability": "pure",
      "type": "function"
    },
    {
      "inputs": [
        {
          "internalType": "uint256",
          "name": "index",
          "type": "uint256"
        }
      ],
      "name": "getDogTokenUrls",
      "outputs": [
        {
          "internalType": "string",
          "name": "",
          "type": "string"
        }
      ],
      "stateMutability": "view",
      "type": "function"
    },
    {
      "inputs": [],
      "name": "getMintFee",
      "outputs": [
        {
          "internalType": "uint256",
          "name": "",
          "type": "uint256"
        }
      ],
      "stateMutability": "view",
      "type": "function"
    },
    {
      "inputs": [
        {
          "internalType": "uint256",
          "name": "index",
          "type": "uint256"
        }
      ],
      "name": "getMinter",
      "outputs": [
        {
          "internalType": "address",
          "name": "",
          "type": "address"
        }
      ],
      "stateMutability": "view",
      "type": "function"
    },
    {
      "inputs": [],
      "name": "getOwner",
      "outputs": [
        {
          "internalType": "address",
          "name": "",
          "type": "address"
        }
      ],
      "stateMutability": "view",
      "type": "function"
    },
    {
      "inputs": [],
      "name": "getSubscriptionId",
      "outputs": [
        {
          "internalType": "uint64",
          "name": "",
          "type": "uint64"
        }
      ],
      "stateMutability": "view",
      "type": "function"
    },
    {
      "inputs": [],
      "name": "getTokenCounter",
      "outputs": [
        {
          "internalType": "uint256",
          "name": "",
          "type": "uint256"
        }
      ],
      "stateMutability": "view",
      "type": "function"
    },
    {
      "inputs": [],
      "name": "getTokenUri",
      "outputs": [
        {
          "internalType": "string[]",
          "name": "",
          "type": "string[]"
        }
      ],
      "stateMutability": "view",
      "type": "function"
    },
    {
      "inputs": [],
      "name": "getVrfCoorfinator",
      "outputs": [
        {
          "internalType": "contract VRFCoordinatorV2Interface",
          "name": "",
          "type": "address"
        }
      ],
      "stateMutability": "view",
      "type": "function"
    },
    {
      "inputs": [],
      "name": "getkeyHash",
      "outputs": [
        {
          "internalType": "bytes32",
          "name": "",
          "type": "bytes32"
        }
      ],
      "stateMutability": "view",
      "type": "function"
    },
    {
      "inputs": [
        {
          "internalType": "address",
          "name": "owner",
          "type": "address"
        },
        {
          "internalType": "address",
          "name": "operator",
          "type": "address"
        }
      ],
      "name": "isApprovedForAll",
      "outputs": [
        {
          "internalType": "bool",
          "name": "",
          "type": "bool"
        }
      ],
      "stateMutability": "view",
      "type": "function"
    },
    {
      "inputs": [],
      "name": "name",
      "outputs": [
        {
          "internalType": "string",
          "name": "",
          "type": "string"
        }
      ],
      "stateMutability": "view",
      "type": "function"
    },
    {
      "inputs": [
        {
          "internalType": "uint256",
          "name": "tokenId",
          "type": "uint256"
        }
      ],
      "name": "ownerOf",
      "outputs": [
        {
          "internalType": "address",
          "name": "",
          "type": "address"
        }
      ],
      "stateMutability": "view",
      "type": "function"
    },
    {
      "inputs": [
        {
          "internalType": "uint256",
          "name": "requestId",
          "type": "uint256"
        },
        {
          "internalType": "uint256[]",
          "name": "randomWords",
          "type": "uint256[]"
        }
      ],
      "name": "rawFulfillRandomWords",
      "outputs": [],
      "stateMutability": "nonpayable",
      "type": "function"
    },
    {
      "inputs": [],
      "name": "requestNft",
      "outputs": [
        {
          "internalType": "uint256",
          "name": "requestId",
          "type": "uint256"
        }
      ],
      "stateMutability": "payable",
      "type": "function"
    },
    {
      "inputs": [
        {
          "internalType": "address",
          "name": "from",
          "type": "address"
        },
        {
          "internalType": "address",
          "name": "to",
          "type": "address"
        },
        {
          "internalType": "uint256",
          "name": "tokenId",
          "type": "uint256"
        }
      ],
      "name": "safeTransferFrom",
      "outputs": [],
      "stateMutability": "nonpayable",
      "type": "function"
    },
    {
      "inputs": [
        {
          "internalType": "address",
          "name": "from",
          "type": "address"
        },
        {
          "internalType": "address",
          "name": "to",
          "type": "address"
        },
        {
          "internalType": "uint256",
          "name": "tokenId",
          "type": "uint256"
        },
        {
          "internalType": "bytes",
          "name": "data",
          "type": "bytes"
        }
      ],
      "name": "safeTransferFrom",
      "outputs": [],
      "stateMutability": "nonpayable",
      "type": "function"
    },
    {
      "inputs": [
        {
          "internalType": "address",
          "name": "operator",
          "type": "address"
        },
        {
          "internalType": "bool",
          "name": "approved",
          "type": "bool"
        }
      ],
      "name": "setApprovalForAll",
      "outputs": [],
      "stateMutability": "nonpayable",
      "type": "function"
    },
    {
      "inputs": [
        {
          "internalType": "bytes4",
          "name": "interfaceId",
          "type": "bytes4"
        }
      ],
      "name": "supportsInterface",
      "outputs": [
        {
          "internalType": "bool",
          "name": "",
          "type": "bool"
        }
      ],
      "stateMutability": "view",
      "type": "function"
    },
    {
      "inputs": [],
      "name": "symbol",
      "outputs": [
        {
          "internalType": "string",
          "name": "",
          "type": "string"
        }
      ],
      "stateMutability": "view",
      "type": "function"
    },
    {
      "inputs": [
        {
          "internalType": "uint256",
          "name": "tokenId",
          "type": "uint256"
        }
      ],
      "name": "tokenURI",
      "outputs": [
        {
          "internalType": "string",
          "name": "",
          "type": "string"
        }
      ],
      "stateMutability": "view",
      "type": "function"
    },
    {
      "inputs": [
        {
          "internalType": "address",
          "name": "from",
          "type": "address"
        },
        {
          "internalType": "address",
          "name": "to",
          "type": "address"
        },
        {
          "internalType": "uint256",
          "name": "tokenId",
          "type": "uint256"
        }
      ],
      "name": "transferFrom",
      "outputs": [],
      "stateMutability": "nonpayable",
      "type": "function"
    },
    {
      "inputs": [],
      "name": "withdraw",
      "outputs": [],
      "stateMutability": "nonpayable",
      "type": "function"
    }
  ],
  "transactionHash": "0xd95faf1e91fea92dba0941b484280897984b8937cb244262072139c5bc292518",
  "args": [
    "0xe7f1725E7734CE288F8367e1Bb143E90bb3F0512",
    "1",
    "0xd89b2bf150e3b9e13446986e571fb9cab24b13cea0a43ea20a6049a85cc807cc",
    "2500000",
    "1000000000000000000",
    [
      "ipfs://QmQVNEEme8nKJZWtPJmncrdQng8MFzzpUYsJoF67WMm54s",
      "ipfs://QmSwnTcihNken5QHVsEKWQaKMiX5YbAorrT6rnE2f88RkL",
      "ipfs://QmRnavYyntUjF5299VMMepDNY7MXrhLMvPkV3W9ZR4HEYg"
    ]
  ],
  "numDeployments": 1,
  "solcInputHash": "8c775da2f9222dc2308ba592a21df380",
  "bytecode": "0x6101606040523480156200001257600080fd5b506040516200417038038062004170833981810160405281019062000038919062000696565b856040518060400160405280601581526020017f426c6f636b636861696e204f7261636c65204e465400000000000000000000008152506040518060400160405280600381526020017f424f4e00000000000000000000000000000000000000000000000000000000008152508160009081620000b6919062000992565b508060019081620000c8919062000992565b5050508073ffffffffffffffffffffffffffffffffffffffff1660808173ffffffffffffffffffffffffffffffffffffffff1681525050508573ffffffffffffffffffffffffffffffffffffffff1660a08173ffffffffffffffffffffffffffffffffffffffff16815250508467ffffffffffffffff1660c08167ffffffffffffffff16815250508360e081815250508263ffffffff166101008163ffffffff16815250508161012081815250503373ffffffffffffffffffffffffffffffffffffffff166101408173ffffffffffffffffffffffffffffffffffffffff1681525050806007906003620001be929190620001cb565b5050505050505062000a79565b82805482825590600052602060002090810192821562000218579160200282015b828111156200021757825182908162000206919062000992565b5091602001919060010190620001ec565b5b5090506200022791906200022b565b5090565b5b808211156200024f576000818162000245919062000253565b506001016200022c565b5090565b50805462000261906200078b565b6000825580601f1062000275575062000296565b601f01602090049060005260206000209081019062000295919062000299565b5b50565b5b80821115620002b45760008160009055506001016200029a565b5090565b6000604051905090565b600080fd5b600080fd5b600073ffffffffffffffffffffffffffffffffffffffff82169050919050565b6000620002f982620002cc565b9050919050565b6200030b81620002ec565b81146200031757600080fd5b50565b6000815190506200032b8162000300565b92915050565b600067ffffffffffffffff82169050919050565b620003508162000331565b81146200035c57600080fd5b50565b600081519050620003708162000345565b92915050565b6000819050919050565b6200038b8162000376565b81146200039757600080fd5b50565b600081519050620003ab8162000380565b92915050565b600063ffffffff82169050919050565b620003cc81620003b1565b8114620003d857600080fd5b50565b600081519050620003ec81620003c1565b92915050565b6000819050919050565b6200040781620003f2565b81146200041357600080fd5b50565b6000815190506200042781620003fc565b92915050565b600080fd5b6000601f19601f8301169050919050565b7f4e487b7100000000000000000000000000000000000000000000000000000000600052604160045260246000fd5b6200047d8262000432565b810181811067ffffffffffffffff821117156200049f576200049e62000443565b5b80604052505050565b6000620004b4620002b8565b9050620004c2828262000472565b919050565b600067ffffffffffffffff821115620004e557620004e462000443565b5b602082029050919050565b600080fd5b600080fd5b600067ffffffffffffffff82111562000518576200051762000443565b5b620005238262000432565b9050602081019050919050565b60005b838110156200055057808201518184015260208101905062000533565b60008484015250505050565b6000620005736200056d84620004fa565b620004a8565b905082815260208101848484011115620005925762000591620004f5565b5b6200059f84828562000530565b509392505050565b600082601f830112620005bf57620005be6200042d565b5b8151620005d18482602086016200055c565b91505092915050565b6000620005f1620005eb84620004c7565b620004a8565b905080602084028301858111156200060e576200060d620004f0565b5b835b818110156200065c57805167ffffffffffffffff8111156200063757620006366200042d565b5b808601620006468982620005a7565b8552602085019450505060208101905062000610565b5050509392505050565b600082601f8301126200067e576200067d6200042d565b5b60036200068d848285620005da565b91505092915050565b60008060008060008060c08789031215620006b657620006b5620002c2565b5b6000620006c689828a016200031a565b9650506020620006d989828a016200035f565b9550506040620006ec89828a016200039a565b9450506060620006ff89828a01620003db565b93505060806200071289828a0162000416565b92505060a087015167ffffffffffffffff811115620007365762000735620002c7565b5b6200074489828a0162000666565b9150509295509295509295565b600081519050919050565b7f4e487b7100000000000000000000000000000000000000000000000000000000600052602260045260246000fd5b60006002820490506001821680620007a457607f821691505b602082108103620007ba57620007b96200075c565b5b50919050565b60008190508160005260206000209050919050565b60006020601f8301049050919050565b600082821b905092915050565b600060088302620008247fffffffffffffffffffffffffffffffffffffffffffffffffffffffffffffffff82620007e5565b620008308683620007e5565b95508019841693508086168417925050509392505050565b6000819050919050565b6000620008736200086d6200086784620003f2565b62000848565b620003f2565b9050919050565b6000819050919050565b6200088f8362000852565b620008a76200089e826200087a565b848454620007f2565b825550505050565b600090565b620008be620008af565b620008cb81848462000884565b505050565b5b81811015620008f357620008e7600082620008b4565b600181019050620008d1565b5050565b601f82111562000942576200090c81620007c0565b6200091784620007d5565b8101602085101562000927578190505b6200093f6200093685620007d5565b830182620008d0565b50505b505050565b600082821c905092915050565b6000620009676000198460080262000947565b1980831691505092915050565b600062000982838362000954565b9150826002028217905092915050565b6200099d8262000751565b67ffffffffffffffff811115620009b957620009b862000443565b5b620009c582546200078b565b620009d2828285620008f7565b600060209050601f83116001811462000a0a5760008415620009f5578287015190505b62000a01858262000974565b86555062000a71565b601f19841662000a1a86620007c0565b60005b8281101562000a445784890151825560018201915060208501945060208101905062000a1d565b8683101562000a64578489015162000a60601f89168262000954565b8355505b6001600288020188555050505b505050505050565b60805160a05160c05160e05161010051610120516101405161366b62000b05600039600081816109e50152610cd1015260008181610c560152610e6d015260008181610f470152611323015260008181610afb0152610f03015260008181610f24015261134b015260008181610c7e0152610ec701526000818161080c0152610860015261366b6000f3fe6080604052600436106101b75760003560e01c80637dc3b5da116100ec578063b88d4fde1161008a578063d40cd37d11610064578063d40cd37d14610615578063dd553f1214610652578063de3d9fb71461067d578063e985e9c5146106a8576101b7565b8063b88d4fde14610584578063c395c8af146105ad578063c87b56dd146105d8576101b7565b806395d89b41116100c657806395d89b41146104d5578063a22cb46514610500578063a51cccf314610529578063aa15249114610566576101b7565b80637dc3b5da1461045457806386d73b411461047f578063893d20e8146104aa576101b7565b806340cc232b116101595780636352211e116101335780636352211e146103845780636e02007d146103c157806370a08231146103ec5780637a5caab314610429576101b7565b806340cc232b146102f357806342842e0e1461031e5780635b7121f814610347576101b7565b8063095ea7b311610195578063095ea7b3146102615780631fe543e31461028a57806323b872dd146102b35780633ccfd60b146102dc576101b7565b806301ffc9a7146101bc57806306fdde03146101f9578063081812fc14610224575b600080fd5b3480156101c857600080fd5b506101e360048036038101906101de9190612550565b6106e5565b6040516101f09190612598565b60405180910390f35b34801561020557600080fd5b5061020e610746565b60405161021b9190612643565b60405180910390f35b34801561023057600080fd5b5061024b6004803603810190610246919061269b565b6107d8565b6040516102589190612709565b60405180910390f35b34801561026d57600080fd5b5061028860048036038101906102839190612750565b6107f4565b005b34801561029657600080fd5b506102b160048036038101906102ac91906128d8565b61080a565b005b3480156102bf57600080fd5b506102da60048036038101906102d59190612934565b6108ca565b005b3480156102e857600080fd5b506102f16109cc565b005b3480156102ff57600080fd5b50610308610af7565b60405161031591906129a0565b60405180910390f35b34801561032a57600080fd5b5061034560048036038101906103409190612934565b610b1f565b005b34801561035357600080fd5b5061036e6004803603810190610369919061269b565b610b3f565b60405161037b9190612709565b60405180910390f35b34801561039057600080fd5b506103ab60048036038101906103a6919061269b565b610b7c565b6040516103b89190612709565b60405180910390f35b3480156103cd57600080fd5b506103d6610b8e565b6040516103e391906129ca565b60405180910390f35b3480156103f857600080fd5b50610413600480360381019061040e91906129e5565b610b98565b60405161042091906129ca565b60405180910390f35b34801561043557600080fd5b5061043e610c52565b60405161044b91906129ca565b60405180910390f35b34801561046057600080fd5b50610469610c7a565b6040516104769190612a71565b60405180910390f35b34801561048b57600080fd5b50610494610ca2565b6040516104a19190612b37565b60405180910390f35b3480156104b657600080fd5b506104bf610ccd565b6040516104cc9190612709565b60405180910390f35b3480156104e157600080fd5b506104ea610cf5565b6040516104f79190612643565b60405180910390f35b34801561050c57600080fd5b5061052760048036038101906105229190612b7e565b610d87565b005b34801561053557600080fd5b50610550600480360381019061054b919061269b565b610d9d565b60405161055d9190612c35565b60405180910390f35b61056e610e69565b60405161057b91906129ca565b60405180910390f35b34801561059057600080fd5b506105ab60048036038101906105a69190612d05565b611066565b005b3480156105b957600080fd5b506105c2611083565b6040516105cf9190612e94565b60405180910390f35b3480156105e457600080fd5b506105ff60048036038101906105fa919061269b565b61115c565b60405161060c9190612643565b60405180910390f35b34801561062157600080fd5b5061063c6004803603810190610637919061269b565b61126f565b6040516106499190612643565b60405180910390f35b34801561065e57600080fd5b5061066761131f565b6040516106749190612ed5565b60405180910390f35b34801561068957600080fd5b50610692611347565b60405161069f9190612f13565b60405180910390f35b3480156106b457600080fd5b506106cf60048036038101906106ca9190612f2e565b61136f565b6040516106dc9190612598565b60405180910390f35b6000634906490660e01b7bffffffffffffffffffffffffffffffffffffffffffffffffffffffff1916827bffffffffffffffffffffffffffffffffffffffffffffffffffffffff1916148061073f575061073e82611403565b5b9050919050565b60606000805461075590612f9d565b80601f016020809104026020016040519081016040528092919081815260200182805461078190612f9d565b80156107ce5780601f106107a3576101008083540402835291602001916107ce565b820191906000526020600020905b8154815290600101906020018083116107b157829003601f168201915b5050505050905090565b60006107e3826114e5565b506107ed8261156d565b9050919050565b61080682826108016115aa565b6115b2565b5050565b7f000000000000000000000000000000000000000000000000000000000000000073ffffffffffffffffffffffffffffffffffffffff163373ffffffffffffffffffffffffffffffffffffffff16146108bc57337f00000000000000000000000000000000000000000000000000000000000000006040517f1cf993f40000000000000000000000000000000000000000000000000000000081526004016108b3929190612fce565b60405180910390fd5b6108c682826115c4565b5050565b600073ffffffffffffffffffffffffffffffffffffffff168273ffffffffffffffffffffffffffffffffffffffff160361093c5760006040517f64a0ae920000000000000000000000000000000000000000000000000000000081526004016109339190612709565b60405180910390fd5b6000610950838361094b6115aa565b611761565b90508373ffffffffffffffffffffffffffffffffffffffff168173ffffffffffffffffffffffffffffffffffffffff16146109c6578382826040517f64283d7b0000000000000000000000000000000000000000000000000000000081526004016109bd93929190612ff7565b60405180910390fd5b50505050565b3373ffffffffffffffffffffffffffffffffffffffff167f000000000000000000000000000000000000000000000000000000000000000073ffffffffffffffffffffffffffffffffffffffff1614610a51576040517f31cffa2600000000000000000000000000000000000000000000000000000000815260040160405180910390fd5b60003373ffffffffffffffffffffffffffffffffffffffff1647604051610a779061305f565b60006040518083038185875af1925050503d8060008114610ab4576040519150601f19603f3d011682016040523d82523d6000602084013e610ab9565b606091505b5050905080610af4576040517f71ded84900000000000000000000000000000000000000000000000000000000815260040160405180910390fd5b50565b60007f0000000000000000000000000000000000000000000000000000000000000000905090565b610b3a83838360405180602001604052806000815250611066565b505050565b60006009600083815260200190815260200160002060009054906101000a900473ffffffffffffffffffffffffffffffffffffffff169050919050565b6000610b87826114e5565b9050919050565b6000600854905090565b60008073ffffffffffffffffffffffffffffffffffffffff168273ffffffffffffffffffffffffffffffffffffffff1603610c0b5760006040517f89c62b64000000000000000000000000000000000000000000000000000000008152600401610c029190612709565b60405180910390fd5b600360008373ffffffffffffffffffffffffffffffffffffffff1673ffffffffffffffffffffffffffffffffffffffff168152602001908152602001600020549050919050565b60007f0000000000000000000000000000000000000000000000000000000000000000905090565b60007f0000000000000000000000000000000000000000000000000000000000000000905090565b610caa6124c2565b6040518060600160405280600a8152602001602881526020016064815250905090565b60007f0000000000000000000000000000000000000000000000000000000000000000905090565b606060018054610d0490612f9d565b80601f0160208091040260200160405190810160405280929190818152602001828054610d3090612f9d565b8015610d7d5780601f10610d5257610100808354040283529160200191610d7d565b820191906000526020600020905b815481529060010190602001808311610d6057829003601f168201915b5050505050905090565b610d99610d926115aa565b838361197b565b5050565b600080600090506000610dae610ca2565b905060005b6003811015610e3157828510158015610de25750818160038110610dda57610dd9613074565b5b602002015185105b15610e0457806002811115610dfa57610df9612bbe565b5b9350505050610e64565b818160038110610e1757610e16613074565b5b602002015192508080610e29906130d2565b915050610db3565b506040517f4b145a0700000000000000000000000000000000000000000000000000000000815260040160405180910390fd5b919050565b60007f0000000000000000000000000000000000000000000000000000000000000000341015610ec5576040517feed5b15300000000000000000000000000000000000000000000000000000000815260040160405180910390fd5b7f000000000000000000000000000000000000000000000000000000000000000073ffffffffffffffffffffffffffffffffffffffff16635d3b1d307f00000000000000000000000000000000000000000000000000000000000000007f000000000000000000000000000000000000000000000000000000000000000060037f000000000000000000000000000000000000000000000000000000000000000060016040518663ffffffff1660e01b8152600401610f88959493929190613137565b6020604051808303816000875af1158015610fa7573d6000803e3d6000fd5b505050506040513d601f19601f82011682018060405250810190610fcb919061319f565b9050336009600083815260200190815260200160002060006101000a81548173ffffffffffffffffffffffffffffffffffffffff021916908373ffffffffffffffffffffffffffffffffffffffff1602179055503373ffffffffffffffffffffffffffffffffffffffff16817ffc00ef7289024901666523016ccc04e0d15e1e28cb3e686eb8feddc4141183c160405160405180910390a390565b6110718484846108ca565b61107d84848484611aea565b50505050565b60606007805480602002602001604051908101604052809291908181526020016000905b828210156111535783829060005260206000200180546110c690612f9d565b80601f01602080910402602001604051908101604052809291908181526020018280546110f290612f9d565b801561113f5780601f106111145761010080835404028352916020019161113f565b820191906000526020600020905b81548152906001019060200180831161112257829003601f168201915b5050505050815260200190600101906110a7565b50505050905090565b6060611167826114e5565b50600060066000848152602001908152602001600020805461118890612f9d565b80601f01602080910402602001604051908101604052809291908181526020018280546111b490612f9d565b80156112015780601f106111d657610100808354040283529160200191611201565b820191906000526020600020905b8154815290600101906020018083116111e457829003601f168201915b505050505090506000611212611ca1565b9050600081510361122757819250505061126a565b60008251111561125c578082604051602001611244929190613208565b6040516020818303038152906040529250505061126a565b61126584611cb8565b925050505b919050565b60606007828154811061128557611284613074565b5b90600052602060002001805461129a90612f9d565b80601f01602080910402602001604051908101604052809291908181526020018280546112c690612f9d565b80156113135780601f106112e857610100808354040283529160200191611313565b820191906000526020600020905b8154815290600101906020018083116112f657829003601f168201915b50505050509050919050565b60007f0000000000000000000000000000000000000000000000000000000000000000905090565b60007f0000000000000000000000000000000000000000000000000000000000000000905090565b6000600560008473ffffffffffffffffffffffffffffffffffffffff1673ffffffffffffffffffffffffffffffffffffffff16815260200190815260200160002060008373ffffffffffffffffffffffffffffffffffffffff1673ffffffffffffffffffffffffffffffffffffffff16815260200190815260200160002060009054906101000a900460ff16905092915050565b60007f80ac58cd000000000000000000000000000000000000000000000000000000007bffffffffffffffffffffffffffffffffffffffffffffffffffffffff1916827bffffffffffffffffffffffffffffffffffffffffffffffffffffffff191614806114ce57507f5b5e139f000000000000000000000000000000000000000000000000000000007bffffffffffffffffffffffffffffffffffffffffffffffffffffffff1916827bffffffffffffffffffffffffffffffffffffffffffffffffffffffff1916145b806114de57506114dd82611d21565b5b9050919050565b6000806114f183611d8b565b9050600073ffffffffffffffffffffffffffffffffffffffff168173ffffffffffffffffffffffffffffffffffffffff160361156457826040517f7e27328900000000000000000000000000000000000000000000000000000000815260040161155b91906129ca565b60405180910390fd5b80915050919050565b60006004600083815260200190815260200160002060009054906101000a900473ffffffffffffffffffffffffffffffffffffffff169050919050565b600033905090565b6115bf8383836001611dc8565b505050565b60006009600084815260200190815260200160002060009054906101000a900473ffffffffffffffffffffffffffffffffffffffff169050600060648360008151811061161457611613613074565b5b6020026020010151611626919061325b565b9050600061163382610d9d565b9050600060085490506116468482611f8d565b60086000815480929190611659906130d2565b919050555061172081600784600281111561167757611676612bbe565b5b8154811061168857611687613074565b5b90600052602060002001805461169d90612f9d565b80601f01602080910402602001604051908101604052809291908181526020018280546116c990612f9d565b80156117165780601f106116eb57610100808354040283529160200191611716565b820191906000526020600020905b8154815290600101906020018083116116f957829003601f168201915b5050505050611fab565b7f8a269f26b688e110e9cbd887d163dab35cae678fa353a0292de532c0cac1ecdc828560405161175192919061328c565b60405180910390a1505050505050565b60008061176d84611d8b565b9050600073ffffffffffffffffffffffffffffffffffffffff168373ffffffffffffffffffffffffffffffffffffffff16146117af576117ae818486612007565b5b600073ffffffffffffffffffffffffffffffffffffffff168173ffffffffffffffffffffffffffffffffffffffff1614611840576117f1600085600080611dc8565b6001600360008373ffffffffffffffffffffffffffffffffffffffff1673ffffffffffffffffffffffffffffffffffffffff168152602001908152602001600020600082825403925050819055505b600073ffffffffffffffffffffffffffffffffffffffff168573ffffffffffffffffffffffffffffffffffffffff16146118c3576001600360008773ffffffffffffffffffffffffffffffffffffffff1673ffffffffffffffffffffffffffffffffffffffff168152602001908152602001600020600082825401925050819055505b846002600086815260200190815260200160002060006101000a81548173ffffffffffffffffffffffffffffffffffffffff021916908373ffffffffffffffffffffffffffffffffffffffff160217905550838573ffffffffffffffffffffffffffffffffffffffff168273ffffffffffffffffffffffffffffffffffffffff167fddf252ad1be2c89b69c2b068fc378daa952ba7f163c4a11628f55a4df523b3ef60405160405180910390a4809150509392505050565b600073ffffffffffffffffffffffffffffffffffffffff168273ffffffffffffffffffffffffffffffffffffffff16036119ec57816040517f5b08ba180000000000000000000000000000000000000000000000000000000081526004016119e39190612709565b60405180910390fd5b80600560008573ffffffffffffffffffffffffffffffffffffffff1673ffffffffffffffffffffffffffffffffffffffff16815260200190815260200160002060008473ffffffffffffffffffffffffffffffffffffffff1673ffffffffffffffffffffffffffffffffffffffff16815260200190815260200160002060006101000a81548160ff0219169083151502179055508173ffffffffffffffffffffffffffffffffffffffff168373ffffffffffffffffffffffffffffffffffffffff167f17307eab39ab6107e8899845ad3d59bd9653f200f220920489ca2b5937696c3183604051611add9190612598565b60405180910390a3505050565b60008373ffffffffffffffffffffffffffffffffffffffff163b1115611c9b578273ffffffffffffffffffffffffffffffffffffffff1663150b7a02611b2e6115aa565b8685856040518563ffffffff1660e01b8152600401611b50949392919061330a565b6020604051808303816000875af1925050508015611b8c57506040513d601f19601f82011682018060405250810190611b89919061336b565b60015b611c10573d8060008114611bbc576040519150601f19603f3d011682016040523d82523d6000602084013e611bc1565b606091505b506000815103611c0857836040517f64a0ae92000000000000000000000000000000000000000000000000000000008152600401611bff9190612709565b60405180910390fd5b805181602001fd5b63150b7a0260e01b7bffffffffffffffffffffffffffffffffffffffffffffffffffffffff1916817bffffffffffffffffffffffffffffffffffffffffffffffffffffffff191614611c9957836040517f64a0ae92000000000000000000000000000000000000000000000000000000008152600401611c909190612709565b60405180910390fd5b505b50505050565b606060405180602001604052806000815250905090565b6060611cc3826114e5565b506000611cce611ca1565b90506000815111611cee5760405180602001604052806000815250611d19565b80611cf8846120cb565b604051602001611d09929190613208565b6040516020818303038152906040525b915050919050565b60007f01ffc9a7000000000000000000000000000000000000000000000000000000007bffffffffffffffffffffffffffffffffffffffffffffffffffffffff1916827bffffffffffffffffffffffffffffffffffffffffffffffffffffffff1916149050919050565b60006002600083815260200190815260200160002060009054906101000a900473ffffffffffffffffffffffffffffffffffffffff169050919050565b8080611e015750600073ffffffffffffffffffffffffffffffffffffffff168273ffffffffffffffffffffffffffffffffffffffff1614155b15611f35576000611e11846114e5565b9050600073ffffffffffffffffffffffffffffffffffffffff168373ffffffffffffffffffffffffffffffffffffffff1614158015611e7c57508273ffffffffffffffffffffffffffffffffffffffff168173ffffffffffffffffffffffffffffffffffffffff1614155b8015611e8f5750611e8d818461136f565b155b15611ed157826040517fa9fbf51f000000000000000000000000000000000000000000000000000000008152600401611ec89190612709565b60405180910390fd5b8115611f3357838573ffffffffffffffffffffffffffffffffffffffff168273ffffffffffffffffffffffffffffffffffffffff167f8c5be1e5ebec7d5bd14f71427d1e84f3dd0314c0f7b2291e5b200ac8c7c3b92560405160405180910390a45b505b836004600085815260200190815260200160002060006101000a81548173ffffffffffffffffffffffffffffffffffffffff021916908373ffffffffffffffffffffffffffffffffffffffff16021790555050505050565b611fa7828260405180602001604052806000815250612199565b5050565b80600660008481526020019081526020016000209081611fcb919061353a565b507ff8e1a15aba9398e019f0b49df1a4fde98ee17ae345cb5f6b5e2c27f5033e8ce782604051611ffb91906129ca565b60405180910390a15050565b6120128383836121b5565b6120c657600073ffffffffffffffffffffffffffffffffffffffff168373ffffffffffffffffffffffffffffffffffffffff160361208757806040517f7e27328900000000000000000000000000000000000000000000000000000000815260040161207e91906129ca565b60405180910390fd5b81816040517f177e802f0000000000000000000000000000000000000000000000000000000081526004016120bd92919061360c565b60405180910390fd5b505050565b6060600060016120da84612276565b01905060008167ffffffffffffffff8111156120f9576120f8612795565b5b6040519080825280601f01601f19166020018201604052801561212b5781602001600182028036833780820191505090505b509050600082602001820190505b60011561218e578080600190039150507f3031323334353637383961626364656600000000000000000000000000000000600a86061a8153600a85816121825761218161322c565b5b04945060008503612139575b819350505050919050565b6121a383836123c9565b6121b06000848484611aea565b505050565b60008073ffffffffffffffffffffffffffffffffffffffff168373ffffffffffffffffffffffffffffffffffffffff161415801561226d57508273ffffffffffffffffffffffffffffffffffffffff168473ffffffffffffffffffffffffffffffffffffffff16148061222e575061222d848461136f565b5b8061226c57508273ffffffffffffffffffffffffffffffffffffffff166122548361156d565b73ffffffffffffffffffffffffffffffffffffffff16145b5b90509392505050565b600080600090507a184f03e93ff9f4daa797ed6e38ed64bf6a1f01000000000000000083106122d4577a184f03e93ff9f4daa797ed6e38ed64bf6a1f01000000000000000083816122ca576122c961322c565b5b0492506040810190505b6d04ee2d6d415b85acef81000000008310612311576d04ee2d6d415b85acef810000000083816123075761230661322c565b5b0492506020810190505b662386f26fc10000831061234057662386f26fc1000083816123365761233561322c565b5b0492506010810190505b6305f5e1008310612369576305f5e100838161235f5761235e61322c565b5b0492506008810190505b612710831061238e5761271083816123845761238361322c565b5b0492506004810190505b606483106123b157606483816123a7576123a661322c565b5b0492506002810190505b600a83106123c0576001810190505b80915050919050565b600073ffffffffffffffffffffffffffffffffffffffff168273ffffffffffffffffffffffffffffffffffffffff160361243b5760006040517f64a0ae920000000000000000000000000000000000000000000000000000000081526004016124329190612709565b60405180910390fd5b600061244983836000611761565b9050600073ffffffffffffffffffffffffffffffffffffffff168173ffffffffffffffffffffffffffffffffffffffff16146124bd5760006040517f73c6ac6e0000000000000000000000000000000000000000000000000000000081526004016124b49190612709565b60405180910390fd5b505050565b6040518060600160405280600390602082028036833780820191505090505090565b6000604051905090565b600080fd5b600080fd5b60007fffffffff0000000000000000000000000000000000000000000000000000000082169050919050565b61252d816124f8565b811461253857600080fd5b50565b60008135905061254a81612524565b92915050565b600060208284031215612566576125656124ee565b5b60006125748482850161253b565b91505092915050565b60008115159050919050565b6125928161257d565b82525050565b60006020820190506125ad6000830184612589565b92915050565b600081519050919050565b600082825260208201905092915050565b60005b838110156125ed5780820151818401526020810190506125d2565b60008484015250505050565b6000601f19601f8301169050919050565b6000612615826125b3565b61261f81856125be565b935061262f8185602086016125cf565b612638816125f9565b840191505092915050565b6000602082019050818103600083015261265d818461260a565b905092915050565b6000819050919050565b61267881612665565b811461268357600080fd5b50565b6000813590506126958161266f565b92915050565b6000602082840312156126b1576126b06124ee565b5b60006126bf84828501612686565b91505092915050565b600073ffffffffffffffffffffffffffffffffffffffff82169050919050565b60006126f3826126c8565b9050919050565b612703816126e8565b82525050565b600060208201905061271e60008301846126fa565b92915050565b61272d816126e8565b811461273857600080fd5b50565b60008135905061274a81612724565b92915050565b60008060408385031215612767576127666124ee565b5b60006127758582860161273b565b925050602061278685828601612686565b9150509250929050565b600080fd5b7f4e487b7100000000000000000000000000000000000000000000000000000000600052604160045260246000fd5b6127cd826125f9565b810181811067ffffffffffffffff821117156127ec576127eb612795565b5b80604052505050565b60006127ff6124e4565b905061280b82826127c4565b919050565b600067ffffffffffffffff82111561282b5761282a612795565b5b602082029050602081019050919050565b600080fd5b600061285461284f84612810565b6127f5565b905080838252602082019050602084028301858111156128775761287661283c565b5b835b818110156128a0578061288c8882612686565b845260208401935050602081019050612879565b5050509392505050565b600082601f8301126128bf576128be612790565b5b81356128cf848260208601612841565b91505092915050565b600080604083850312156128ef576128ee6124ee565b5b60006128fd85828601612686565b925050602083013567ffffffffffffffff81111561291e5761291d6124f3565b5b61292a858286016128aa565b9150509250929050565b60008060006060848603121561294d5761294c6124ee565b5b600061295b8682870161273b565b935050602061296c8682870161273b565b925050604061297d86828701612686565b9150509250925092565b6000819050919050565b61299a81612987565b82525050565b60006020820190506129b56000830184612991565b92915050565b6129c481612665565b82525050565b60006020820190506129df60008301846129bb565b92915050565b6000602082840312156129fb576129fa6124ee565b5b6000612a098482850161273b565b91505092915050565b6000819050919050565b6000612a37612a32612a2d846126c8565b612a12565b6126c8565b9050919050565b6000612a4982612a1c565b9050919050565b6000612a5b82612a3e565b9050919050565b612a6b81612a50565b82525050565b6000602082019050612a866000830184612a62565b92915050565b600060039050919050565b600081905092915050565b6000819050919050565b612ab581612665565b82525050565b6000612ac78383612aac565b60208301905092915050565b6000602082019050919050565b612ae981612a8c565b612af38184612a97565b9250612afe82612aa2565b8060005b83811015612b2f578151612b168782612abb565b9650612b2183612ad3565b925050600181019050612b02565b505050505050565b6000606082019050612b4c6000830184612ae0565b92915050565b612b5b8161257d565b8114612b6657600080fd5b50565b600081359050612b7881612b52565b92915050565b60008060408385031215612b9557612b946124ee565b5b6000612ba38582860161273b565b9250506020612bb485828601612b69565b9150509250929050565b7f4e487b7100000000000000000000000000000000000000000000000000000000600052602160045260246000fd5b60038110612bfe57612bfd612bbe565b5b50565b6000819050612c0f82612bed565b919050565b6000612c1f82612c01565b9050919050565b612c2f81612c14565b82525050565b6000602082019050612c4a6000830184612c26565b92915050565b600080fd5b600067ffffffffffffffff821115612c7057612c6f612795565b5b612c79826125f9565b9050602081019050919050565b82818337600083830152505050565b6000612ca8612ca384612c55565b6127f5565b905082815260208101848484011115612cc457612cc3612c50565b5b612ccf848285612c86565b509392505050565b600082601f830112612cec57612ceb612790565b5b8135612cfc848260208601612c95565b91505092915050565b60008060008060808587031215612d1f57612d1e6124ee565b5b6000612d2d8782880161273b565b9450506020612d3e8782880161273b565b9350506040612d4f87828801612686565b925050606085013567ffffffffffffffff811115612d7057612d6f6124f3565b5b612d7c87828801612cd7565b91505092959194509250565b600081519050919050565b600082825260208201905092915050565b6000819050602082019050919050565b600082825260208201905092915050565b6000612dd0826125b3565b612dda8185612db4565b9350612dea8185602086016125cf565b612df3816125f9565b840191505092915050565b6000612e0a8383612dc5565b905092915050565b6000602082019050919050565b6000612e2a82612d88565b612e348185612d93565b935083602082028501612e4685612da4565b8060005b85811015612e825784840389528151612e638582612dfe565b9450612e6e83612e12565b925060208a01995050600181019050612e4a565b50829750879550505050505092915050565b60006020820190508181036000830152612eae8184612e1f565b905092915050565b600063ffffffff82169050919050565b612ecf81612eb6565b82525050565b6000602082019050612eea6000830184612ec6565b92915050565b600067ffffffffffffffff82169050919050565b612f0d81612ef0565b82525050565b6000602082019050612f286000830184612f04565b92915050565b60008060408385031215612f4557612f446124ee565b5b6000612f538582860161273b565b9250506020612f648582860161273b565b9150509250929050565b7f4e487b7100000000000000000000000000000000000000000000000000000000600052602260045260246000fd5b60006002820490506001821680612fb557607f821691505b602082108103612fc857612fc7612f6e565b5b50919050565b6000604082019050612fe360008301856126fa565b612ff060208301846126fa565b9392505050565b600060608201905061300c60008301866126fa565b61301960208301856129bb565b61302660408301846126fa565b949350505050565b600081905092915050565b50565b600061304960008361302e565b915061305482613039565b600082019050919050565b600061306a8261303c565b9150819050919050565b7f4e487b7100000000000000000000000000000000000000000000000000000000600052603260045260246000fd5b7f4e487b7100000000000000000000000000000000000000000000000000000000600052601160045260246000fd5b60006130dd82612665565b91507fffffffffffffffffffffffffffffffffffffffffffffffffffffffffffffffff820361310f5761310e6130a3565b5b600182019050919050565b600061ffff82169050919050565b6131318161311a565b82525050565b600060a08201905061314c6000830188612991565b6131596020830187612f04565b6131666040830186613128565b6131736060830185612ec6565b6131806080830184612ec6565b9695505050505050565b6000815190506131998161266f565b92915050565b6000602082840312156131b5576131b46124ee565b5b60006131c38482850161318a565b91505092915050565b600081905092915050565b60006131e2826125b3565b6131ec81856131cc565b93506131fc8185602086016125cf565b80840191505092915050565b600061321482856131d7565b915061322082846131d7565b91508190509392505050565b7f4e487b7100000000000000000000000000000000000000000000000000000000600052601260045260246000fd5b600061326682612665565b915061327183612665565b9250826132815761328061322c565b5b828206905092915050565b60006040820190506132a16000830185612c26565b6132ae60208301846126fa565b9392505050565b600081519050919050565b600082825260208201905092915050565b60006132dc826132b5565b6132e681856132c0565b93506132f68185602086016125cf565b6132ff816125f9565b840191505092915050565b600060808201905061331f60008301876126fa565b61332c60208301866126fa565b61333960408301856129bb565b818103606083015261334b81846132d1565b905095945050505050565b60008151905061336581612524565b92915050565b600060208284031215613381576133806124ee565b5b600061338f84828501613356565b91505092915050565b60008190508160005260206000209050919050565b60006020601f8301049050919050565b600082821b905092915050565b6000600883026133fa7fffffffffffffffffffffffffffffffffffffffffffffffffffffffffffffffff826133bd565b61340486836133bd565b95508019841693508086168417925050509392505050565b600061343761343261342d84612665565b612a12565b612665565b9050919050565b6000819050919050565b6134518361341c565b61346561345d8261343e565b8484546133ca565b825550505050565b600090565b61347a61346d565b613485818484613448565b505050565b5b818110156134a95761349e600082613472565b60018101905061348b565b5050565b601f8211156134ee576134bf81613398565b6134c8846133ad565b810160208510156134d7578190505b6134eb6134e3856133ad565b83018261348a565b50505b505050565b600082821c905092915050565b6000613511600019846008026134f3565b1980831691505092915050565b600061352a8383613500565b9150826002028217905092915050565b613543826125b3565b67ffffffffffffffff81111561355c5761355b612795565b5b6135668254612f9d565b6135718282856134ad565b600060209050601f8311600181146135a45760008415613592578287015190505b61359c858261351e565b865550613604565b601f1984166135b286613398565b60005b828110156135da578489015182556001820191506020850194506020810190506135b5565b868310156135f757848901516135f3601f891682613500565b8355505b6001600288020188555050505b505050505050565b600060408201905061362160008301856126fa565b61362e60208301846129bb565b939250505056fea26469706673582212207523d9ccb6088fd7cf2a92d794330d536d57cddc476bc245b6544b6f9c759bfd64736f6c63430008140033",
  "devdoc": {
    "errors": {
      "ERC721IncorrectOwner(address,uint256,address)": [
        {
          "details": "Indicates an error related to the ownership over a particular token. Used in transfers.",
          "params": {
            "owner": "Address of the current owner of a token.",
            "sender": "Address whose tokens are being transferred.",
            "tokenId": "Identifier number of a token."
          }
        }
      ],
      "ERC721InsufficientApproval(address,uint256)": [
        {
          "details": "Indicates a failure with the `operator`s approval. Used in transfers.",
          "params": {
            "operator": "Address that may be allowed to operate on tokens without being their owner.",
            "tokenId": "Identifier number of a token."
          }
        }
      ],
      "ERC721InvalidApprover(address)": [
        {
          "details": "Indicates a failure with the `approver` of a token to be approved. Used in approvals.",
          "params": {
            "approver": "Address initiating an approval operation."
          }
        }
      ],
      "ERC721InvalidOperator(address)": [
        {
          "details": "Indicates a failure with the `operator` to be approved. Used in approvals.",
          "params": {
            "operator": "Address that may be allowed to operate on tokens without being their owner."
          }
        }
      ],
      "ERC721InvalidOwner(address)": [
        {
          "details": "Indicates that an address can't be an owner. For example, `address(0)` is a forbidden owner in EIP-20. Used in balance queries.",
          "params": {
            "owner": "Address of the current owner of a token."
          }
        }
      ],
      "ERC721InvalidReceiver(address)": [
        {
          "details": "Indicates a failure with the token `receiver`. Used in transfers.",
          "params": {
            "receiver": "Address to which tokens are being transferred."
          }
        }
      ],
      "ERC721InvalidSender(address)": [
        {
          "details": "Indicates a failure with the token `sender`. Used in transfers.",
          "params": {
            "sender": "Address whose tokens are being transferred."
          }
        }
      ],
      "ERC721NonexistentToken(uint256)": [
        {
          "details": "Indicates a `tokenId` whose `owner` is the zero address.",
          "params": {
            "tokenId": "Identifier number of a token."
          }
        }
      ]
    },
    "events": {
      "Approval(address,address,uint256)": {
        "details": "Emitted when `owner` enables `approved` to manage the `tokenId` token."
      },
      "ApprovalForAll(address,address,bool)": {
        "details": "Emitted when `owner` enables or disables (`approved`) `operator` to manage all of its assets."
      },
      "BatchMetadataUpdate(uint256,uint256)": {
        "details": "This event emits when the metadata of a range of tokens is changed. So that the third-party platforms such as NFT market could timely update the images and related attributes of the NFTs."
      },
      "MetadataUpdate(uint256)": {
        "details": "This event emits when the metadata of a token is changed. So that the third-party platforms such as NFT market could timely update the images and related attributes of the NFT."
      },
      "Transfer(address,address,uint256)": {
        "details": "Emitted when `tokenId` token is transferred from `from` to `to`."
      }
    },
    "kind": "dev",
    "methods": {
      "approve(address,uint256)": {
        "details": "See {IERC721-approve}."
      },
      "balanceOf(address)": {
        "details": "See {IERC721-balanceOf}."
      },
      "getApproved(uint256)": {
        "details": "See {IERC721-getApproved}."
      },
      "isApprovedForAll(address,address)": {
        "details": "See {IERC721-isApprovedForAll}."
      },
      "name()": {
        "details": "See {IERC721Metadata-name}."
      },
      "ownerOf(uint256)": {
        "details": "See {IERC721-ownerOf}."
      },
      "safeTransferFrom(address,address,uint256)": {
        "details": "See {IERC721-safeTransferFrom}."
      },
      "safeTransferFrom(address,address,uint256,bytes)": {
        "details": "See {IERC721-safeTransferFrom}."
      },
      "setApprovalForAll(address,bool)": {
        "details": "See {IERC721-setApprovalForAll}."
      },
      "supportsInterface(bytes4)": {
        "details": "See {IERC165-supportsInterface}"
      },
      "symbol()": {
        "details": "See {IERC721Metadata-symbol}."
      },
      "tokenURI(uint256)": {
        "details": "See {IERC721Metadata-tokenURI}."
      },
      "transferFrom(address,address,uint256)": {
        "details": "See {IERC721-transferFrom}."
      }
    },
    "version": 1
  },
  "userdoc": {
    "kind": "user",
    "methods": {},
    "version": 1
  },
  "storageLayout": {
    "storage": [
      {
        "astId": 2035,
        "contract": "contracts/RandomIPFSNFT.sol:RandomIPFSNFT",
        "label": "_name",
        "offset": 0,
        "slot": "0",
        "type": "t_string_storage"
      },
      {
        "astId": 2037,
        "contract": "contracts/RandomIPFSNFT.sol:RandomIPFSNFT",
        "label": "_symbol",
        "offset": 0,
        "slot": "1",
        "type": "t_string_storage"
      },
      {
        "astId": 2041,
        "contract": "contracts/RandomIPFSNFT.sol:RandomIPFSNFT",
        "label": "_owners",
        "offset": 0,
        "slot": "2",
        "type": "t_mapping(t_uint256,t_address)"
      },
      {
        "astId": 2045,
        "contract": "contracts/RandomIPFSNFT.sol:RandomIPFSNFT",
        "label": "_balances",
        "offset": 0,
        "slot": "3",
        "type": "t_mapping(t_address,t_uint256)"
      },
      {
        "astId": 2049,
        "contract": "contracts/RandomIPFSNFT.sol:RandomIPFSNFT",
        "label": "_tokenApprovals",
        "offset": 0,
        "slot": "4",
        "type": "t_mapping(t_uint256,t_address)"
      },
      {
        "astId": 2055,
        "contract": "contracts/RandomIPFSNFT.sol:RandomIPFSNFT",
        "label": "_operatorApprovals",
        "offset": 0,
        "slot": "5",
        "type": "t_mapping(t_address,t_mapping(t_address,t_bool))"
      },
      {
        "astId": 3174,
        "contract": "contracts/RandomIPFSNFT.sol:RandomIPFSNFT",
        "label": "_tokenURIs",
        "offset": 0,
        "slot": "6",
        "type": "t_mapping(t_uint256,t_string_storage)"
      },
      {
        "astId": 5244,
        "contract": "contracts/RandomIPFSNFT.sol:RandomIPFSNFT",
        "label": "S_TOKEN_URI",
        "offset": 0,
        "slot": "7",
        "type": "t_array(t_string_storage)dyn_storage"
      },
      {
        "astId": 5246,
        "contract": "contracts/RandomIPFSNFT.sol:RandomIPFSNFT",
        "label": "s_tokenCounter",
        "offset": 0,
        "slot": "8",
        "type": "t_uint256"
      },
      {
        "astId": 5285,
        "contract": "contracts/RandomIPFSNFT.sol:RandomIPFSNFT",
        "label": "s_requestIdToSender",
        "offset": 0,
        "slot": "9",
        "type": "t_mapping(t_uint256,t_address)"
      }
    ],
    "types": {
      "t_address": {
        "encoding": "inplace",
        "label": "address",
        "numberOfBytes": "20"
      },
      "t_array(t_string_storage)dyn_storage": {
        "base": "t_string_storage",
        "encoding": "dynamic_array",
        "label": "string[]",
        "numberOfBytes": "32"
      },
      "t_bool": {
        "encoding": "inplace",
        "label": "bool",
        "numberOfBytes": "1"
      },
      "t_mapping(t_address,t_bool)": {
        "encoding": "mapping",
        "key": "t_address",
        "label": "mapping(address => bool)",
        "numberOfBytes": "32",
        "value": "t_bool"
      },
      "t_mapping(t_address,t_mapping(t_address,t_bool))": {
        "encoding": "mapping",
        "key": "t_address",
        "label": "mapping(address => mapping(address => bool))",
        "numberOfBytes": "32",
        "value": "t_mapping(t_address,t_bool)"
      },
      "t_mapping(t_address,t_uint256)": {
        "encoding": "mapping",
        "key": "t_address",
        "label": "mapping(address => uint256)",
        "numberOfBytes": "32",
        "value": "t_uint256"
      },
      "t_mapping(t_uint256,t_address)": {
        "encoding": "mapping",
        "key": "t_uint256",
        "label": "mapping(uint256 => address)",
        "numberOfBytes": "32",
        "value": "t_address"
      },
      "t_mapping(t_uint256,t_string_storage)": {
        "encoding": "mapping",
        "key": "t_uint256",
        "label": "mapping(uint256 => string)",
        "numberOfBytes": "32",
        "value": "t_string_storage"
      },
      "t_string_storage": {
        "encoding": "bytes",
        "label": "string",
        "numberOfBytes": "32"
      },
      "t_uint256": {
        "encoding": "inplace",
        "label": "uint256",
        "numberOfBytes": "32"
      }
    }
  }
}